{
  "contractName": "FreelanceShieldContract",
  "abi": [
    {
      "anonymous": false,
      "inputs": [
        {
          "indexed": false,
          "internalType": "uint256",
          "name": "contractId",
          "type": "uint256"
        },
        {
          "indexed": false,
          "internalType": "address",
          "name": "client",
          "type": "address"
        },
        {
          "indexed": false,
          "internalType": "address",
          "name": "freelancer",
          "type": "address"
        },
        {
          "indexed": false,
          "internalType": "string",
          "name": "projectName",
          "type": "string"
        },
        {
          "indexed": false,
          "internalType": "uint256",
          "name": "deadline",
          "type": "uint256"
        },
        {
          "indexed": false,
          "internalType": "uint256",
          "name": "totalBudget",
          "type": "uint256"
        }
      ],
      "name": "ContractCreated",
      "type": "event"
    },
    {
      "anonymous": false,
      "inputs": [
        {
          "indexed": false,
          "internalType": "uint256",
          "name": "contractId",
          "type": "uint256"
        },
        {
          "indexed": false,
          "internalType": "address",
          "name": "from",
          "type": "address"
        },
        {
          "indexed": false,
          "internalType": "address",
          "name": "to",
          "type": "address"
        },
        {
          "indexed": false,
          "internalType": "uint256",
          "name": "amount",
          "type": "uint256"
        }
      ],
      "name": "FundTransferred",
      "type": "event"
    },
    {
      "anonymous": false,
      "inputs": [
        {
          "indexed": false,
          "internalType": "uint256",
          "name": "contractId",
          "type": "uint256"
        }
      ],
      "name": "ProjectCompleted",
      "type": "event"
    },
    {
      "anonymous": false,
      "inputs": [
        {
          "indexed": false,
          "internalType": "uint256",
          "name": "contractId",
          "type": "uint256"
        },
        {
          "indexed": false,
          "internalType": "enum FreelanceShieldContract.ProjectState",
          "name": "newState",
          "type": "uint8"
        }
      ],
      "name": "ProjectStateChanged",
      "type": "event"
    },
    {
      "anonymous": false,
      "inputs": [
        {
          "indexed": false,
          "internalType": "uint256",
          "name": "contractId",
          "type": "uint256"
        },
        {
          "indexed": false,
          "internalType": "address",
          "name": "verifier",
          "type": "address"
        }
      ],
      "name": "ProjectVerified",
      "type": "event"
    },
    {
      "anonymous": false,
      "inputs": [
        {
          "indexed": false,
          "internalType": "uint256",
          "name": "contractId",
          "type": "uint256"
        },
        {
          "indexed": false,
          "internalType": "address",
          "name": "depositor",
          "type": "address"
        },
        {
          "indexed": false,
          "internalType": "uint256",
          "name": "amount",
          "type": "uint256"
        }
      ],
      "name": "SecurityDepositDeposited",
      "type": "event"
    },
    {
      "anonymous": false,
      "inputs": [
        {
          "indexed": false,
          "internalType": "uint256",
          "name": "contractId",
          "type": "uint256"
        },
        {
          "indexed": false,
          "internalType": "address",
          "name": "payee",
          "type": "address"
        },
        {
          "indexed": false,
          "internalType": "uint256",
          "name": "amount",
          "type": "uint256"
        }
      ],
      "name": "SecurityDepositRefunded",
      "type": "event"
    },
    {
      "inputs": [
        {
          "internalType": "address",
          "name": "",
          "type": "address"
        },
        {
          "internalType": "uint256",
          "name": "",
          "type": "uint256"
        }
      ],
      "name": "clientContracts",
      "outputs": [
        {
          "internalType": "uint256",
          "name": "",
          "type": "uint256"
        }
      ],
      "stateMutability": "view",
      "type": "function",
      "constant": true
    },
    {
      "inputs": [],
      "name": "contractCounter",
      "outputs": [
        {
          "internalType": "uint256",
          "name": "",
          "type": "uint256"
        }
      ],
      "stateMutability": "view",
      "type": "function",
      "constant": true
    },
    {
      "inputs": [
        {
          "internalType": "uint256",
          "name": "",
          "type": "uint256"
        }
      ],
      "name": "contracts",
      "outputs": [
        {
          "internalType": "uint256",
          "name": "id",
          "type": "uint256"
        },
        {
          "internalType": "address",
          "name": "client",
          "type": "address"
        },
        {
          "internalType": "address",
          "name": "freelancer",
          "type": "address"
        },
        {
          "internalType": "uint256",
          "name": "securityDepositAmount",
          "type": "uint256"
        },
        {
          "internalType": "uint256",
          "name": "clientSecurityDeposit",
          "type": "uint256"
        },
        {
          "internalType": "uint256",
          "name": "freelancerSecurityDeposit",
          "type": "uint256"
        },
        {
          "internalType": "enum FreelanceShieldContract.ProjectState",
          "name": "state",
          "type": "uint8"
        },
        {
          "internalType": "string",
          "name": "projectName",
          "type": "string"
        },
        {
          "internalType": "uint256",
          "name": "deadline",
          "type": "uint256"
        },
        {
          "internalType": "uint256",
          "name": "totalBudget",
          "type": "uint256"
        },
        {
          "internalType": "bool",
          "name": "freelancerSigned",
          "type": "bool"
        },
        {
          "internalType": "bool",
          "name": "clientSigned",
          "type": "bool"
        },
        {
          "internalType": "bool",
          "name": "projectVerified",
          "type": "bool"
        },
        {
          "internalType": "bool",
          "name": "fundTransferred",
          "type": "bool"
        }
      ],
      "stateMutability": "view",
      "type": "function",
      "constant": true
    },
    {
      "inputs": [
        {
          "internalType": "address",
          "name": "",
          "type": "address"
        },
        {
          "internalType": "uint256",
          "name": "",
          "type": "uint256"
        }
      ],
      "name": "freelancerContracts",
      "outputs": [
        {
          "internalType": "uint256",
          "name": "",
          "type": "uint256"
        }
      ],
      "stateMutability": "view",
      "type": "function",
      "constant": true
    },
    {
      "inputs": [
        {
          "internalType": "address",
          "name": "_freelancer",
          "type": "address"
        },
        {
          "internalType": "string",
          "name": "_projectName",
          "type": "string"
        },
        {
          "internalType": "uint256",
          "name": "_deadline",
          "type": "uint256"
        },
        {
          "internalType": "uint256",
          "name": "_totalBudget",
          "type": "uint256"
        },
        {
          "internalType": "uint256",
          "name": "_securityDepositAmount",
          "type": "uint256"
        }
      ],
      "name": "createContract",
      "outputs": [],
      "stateMutability": "nonpayable",
      "type": "function"
    },
    {
      "inputs": [
        {
          "internalType": "uint256",
          "name": "contractId",
          "type": "uint256"
        }
      ],
      "name": "depositSecurityDeposit",
      "outputs": [],
      "stateMutability": "payable",
      "type": "function",
      "payable": true
    },
    {
      "inputs": [
        {
          "internalType": "uint256",
          "name": "contractId",
          "type": "uint256"
        },
        {
          "internalType": "enum FreelanceShieldContract.ProjectState",
          "name": "newState",
          "type": "uint8"
        }
      ],
      "name": "updateProjectState",
      "outputs": [],
      "stateMutability": "nonpayable",
      "type": "function"
    },
    {
      "inputs": [
        {
          "internalType": "uint256",
          "name": "contractId",
          "type": "uint256"
        }
      ],
      "name": "markProjectCompleted",
      "outputs": [],
      "stateMutability": "nonpayable",
      "type": "function"
    },
    {
      "inputs": [
        {
          "internalType": "uint256",
          "name": "contractId",
          "type": "uint256"
        }
      ],
      "name": "verifyProject",
      "outputs": [],
      "stateMutability": "nonpayable",
      "type": "function"
    },
    {
      "inputs": [
        {
          "internalType": "uint256",
          "name": "contractId",
          "type": "uint256"
        }
      ],
      "name": "transferFund",
      "outputs": [],
      "stateMutability": "payable",
      "type": "function",
      "payable": true
    },
    {
      "inputs": [],
      "name": "getAllContracts",
      "outputs": [
        {
          "components": [
            {
              "internalType": "uint256",
              "name": "id",
              "type": "uint256"
            },
            {
              "internalType": "address",
              "name": "client",
              "type": "address"
            },
            {
              "internalType": "address",
              "name": "freelancer",
              "type": "address"
            },
            {
              "internalType": "uint256",
              "name": "securityDepositAmount",
              "type": "uint256"
            },
            {
              "internalType": "uint256",
              "name": "clientSecurityDeposit",
              "type": "uint256"
            },
            {
              "internalType": "uint256",
              "name": "freelancerSecurityDeposit",
              "type": "uint256"
            },
            {
              "internalType": "enum FreelanceShieldContract.ProjectState",
              "name": "state",
              "type": "uint8"
            },
            {
              "internalType": "string",
              "name": "projectName",
              "type": "string"
            },
            {
              "internalType": "uint256",
              "name": "deadline",
              "type": "uint256"
            },
            {
              "internalType": "uint256",
              "name": "totalBudget",
              "type": "uint256"
            },
            {
              "internalType": "bool",
              "name": "freelancerSigned",
              "type": "bool"
            },
            {
              "internalType": "bool",
              "name": "clientSigned",
              "type": "bool"
            },
            {
              "internalType": "bool",
              "name": "projectVerified",
              "type": "bool"
            },
            {
              "internalType": "bool",
              "name": "fundTransferred",
              "type": "bool"
            }
          ],
          "internalType": "struct FreelanceShieldContract.Contract[]",
          "name": "",
          "type": "tuple[]"
        }
      ],
      "stateMutability": "view",
      "type": "function",
      "constant": true
    }
  ],
  "bytecode": "0x608060405234801561001057600080fd5b50611c8f806100206000396000f3fe6080604052600436106100bc5760003560e01c80636328790911610074578063cb5b7ca01161004e578063cb5b7ca0146101dd578063d2833709146101fd578063ed1ca91a14610210576100bc565b8063632879091461018a5780636886f10d146101aa57806389e33d9d146101bd576100bc565b80633257548c116100a55780633257548c1461010e5780633467596714610130578063474da79a14610150576100bc565b8063067bd3b4146100c157806318d3ce96146100ec575b600080fd5b3480156100cd57600080fd5b506100d6610230565b6040516100e39190611a6f565b60405180910390f35b3480156100f857600080fd5b50610101610236565b6040516100e3919061148e565b34801561011a57600080fd5b5061012e6101293660046113dc565b61049a565b005b34801561013c57600080fd5b5061012e61014b3660046112c5565b61058e565b34801561015c57600080fd5b5061017061016b3660046113c4565b610835565b6040516100e39e9d9c9b9a99989796959493929190611afb565b34801561019657600080fd5b506100d66101a536600461139b565b610947565b61012e6101b83660046113c4565b610978565b3480156101c957600080fd5b506100d66101d836600461139b565b610b96565b3480156101e957600080fd5b5061012e6101f83660046113c4565b610bb2565b61012e61020b3660046113c4565b610c98565b34801561021c57600080fd5b5061012e61022b3660046113c4565b610e26565b60015481565b6060600060015467ffffffffffffffff81111561026357634e487b7160e01b600052604160045260246000fd5b60405190808252806020026020018201604052801561029c57816020015b61028961116f565b8152602001906001900390816102815790505b50905060005b600154811015610494576000806102ba836001611be8565b8152602080820192909252604090810160002081516101c0810183528154815260018201546001600160a01b0390811694820194909452600282015490931691830191909152600381015460608301526004808201546080840152600582015460a0840152600682015460c084019160ff9091169081111561034c57634e487b7160e01b600052602160045260246000fd5b600481111561036b57634e487b7160e01b600052602160045260246000fd5b815260200160078201805461037f90611c00565b80601f01602080910402602001604051908101604052809291908181526020018280546103ab90611c00565b80156103f85780601f106103cd576101008083540402835291602001916103f8565b820191906000526020600020905b8154815290600101906020018083116103db57829003601f168201915b50505091835250506008820154602082015260098201546040820152600a9091015460ff8082161515606084015261010082048116151560808401526201000082048116151560a0840152630100000090910416151560c090910152825183908390811061047657634e487b7160e01b600052603260045260246000fd5b6020026020010181905250808061048c90611c3b565b9150506102a2565b50905090565b60008281526020819052604090206002015482906001600160a01b031633146104de5760405162461bcd60e51b81526004016104d59061170c565b60405180910390fd5b6000838152602081905260409020600a015460ff1661050f5760405162461bcd60e51b81526004016104d590611a12565b6000838152602081905260409020600601805483919060ff1916600183600481111561054b57634e487b7160e01b600052602160045260246000fd5b02179055507f84748ac78940dbf14129c6da5df32a04b530b472eaddadb4d7b62ea4e88bd46d8383604051610581929190611bcd565b60405180910390a1505050565b6001805490600061059e83611c3b565b9190505550604051806101c001604052806001548152602001336001600160a01b03168152602001866001600160a01b0316815260200182815260200160008152602001600081526020016000600481111561060a57634e487b7160e01b600052602160045260246000fd5b81526020808201879052604080830187905260608084018790526000608080860182905260a080870183905260c080880184905260e090970183905260018054845283875292859020885181559588015186840180547fffffffffffffffffffffffff00000000000000000000000000000000000000009081166001600160a01b039384161790915595890151600288018054909716911617909455918601516003850155908501516004808501919091559185015160058401559284015160068301805493949193909260ff19909116919084908111156106fc57634e487b7160e01b600052602160045260246000fd5b021790555060e0820151805161071c916007840191602090910190611210565b506101008281015160088301556101208301516009830155610140830151600a90920180546101608501516101808601516101a090960151151563010000000263ff00000019961515620100000262ff00001992151590950261ff001996151560ff199094169390931795909516919091171691909117929092161790553360008181526002602090815260408083206001805482548083018455928652848620909201919091556001600160a01b038a168452600383528184208154815480840183559186529390942090930191909155905490517fd1fa394b8f946b876ba7be2dfc86918d981e40ec7b905b4180caf54002fefc0d9261082692918990899089908990611a8f565b60405180910390a15050505050565b6000602081905290815260409020805460018201546002830154600384015460048501546005860154600687015460078801805497986001600160a01b0397881698979096169694959394929360ff9092169261089190611c00565b80601f01602080910402602001604051908101604052809291908181526020018280546108bd90611c00565b801561090a5780601f106108df5761010080835404028352916020019161090a565b820191906000526020600020905b8154815290600101906020018083116108ed57829003601f168201915b5050505060088301546009840154600a909401549293909290915060ff80821691610100810482169162010000820481169163010000009004168e565b6003602052816000526040600020818154811061096357600080fd5b90600052602060002001600091509150505481565b60008181526020819052604090206001015481906001600160a01b031633146109b35760405162461bcd60e51b81526004016104d5906117a0565b6000828152602081905260409020600a015462010000900460ff166109ea5760405162461bcd60e51b81526004016104d5906118f8565b6000828152602081905260409020600901543414610a1a5760405162461bcd60e51b81526004016104d59061189b565b6000828152602081905260409020600a01546301000000900460ff1615610a535760405162461bcd60e51b81526004016104d5906116d5565b600082815260208190526040902060090154471015610a845760405162461bcd60e51b81526004016104d5906119cf565b6000828152602081905260408082206002015490516001600160a01b03909116913480156108fc02929091818181858888f19350505050158015610acc573d6000803e3d6000fd5b5060008281526020819052604090819020600a8101805463ff00000019166301000000179055600181015460029091015491517fb821359465793d23a94be651a0c99477cd92fa74681fdb5913c835b49b62b83992610b3e9286926001600160a01b0391821692909116903490611ad6565b60405180910390a1600082815260208190526040902060020154610b6c9083906001600160a01b0316610f3c565b600082815260208190526040902060010154610b929083906001600160a01b0316610f3c565b5050565b6002602052816000526040600020818154811061096357600080fd5b60008181526020819052604090206002015481906001600160a01b03163314610bed5760405162461bcd60e51b81526004016104d59061170c565b600160008381526020819052604090206006015460ff166004811115610c2357634e487b7160e01b600052602160045260246000fd5b14610c405760405162461bcd60e51b81526004016104d590611667565b60008281526020819052604090819020600601805460ff19166002179055517f60d8df137e489b6216738e436244ca4700bd6d0c8371d3c8d9c80b54538111b990610c8c908490611a6f565b60405180910390a15050565b6000818152602081905260409020600301543414610cc85760405162461bcd60e51b81526004016104d5906117fd565b6000818152602081905260409020600101546001600160a01b0316331415610d5e576000818152602081905260409020600a0154610100900460ff1615610d215760405162461bcd60e51b81526004016104d590611625565b6000818152602081905260408120600a8101805461ff0019166101001790556004018054349290610d53908490611be8565b90915550610de89050565b6000818152602081905260409020600201546001600160a01b0316331415610de8576000818152602081905260409020600a015460ff1615610db25760405162461bcd60e51b81526004016104d59061183e565b6000818152602081905260408120600a8101805460ff191660011790556005018054349290610de2908490611be8565b90915550505b7fe48e5b3057451d7f8180eff26789021517ad757c82c4cb5f3d58dac52ea9a489813334604051610e1b93929190611bae565b60405180910390a150565b60008181526020819052604090206001015481906001600160a01b03163314610e615760405162461bcd60e51b81526004016104d5906117a0565b6000828152602081905260409020600a0154610100900460ff16610e975760405162461bcd60e51b81526004016104d590611955565b600260008381526020819052604090206006015460ff166004811115610ecd57634e487b7160e01b600052602160045260246000fd5b14610eea5760405162461bcd60e51b81526004016104d59061169e565b60008281526020819052604090819020600a01805462ff0000191662010000179055517fa8993bbe79af1071dc039c1144feccfba01680aa0fdd10a4e92f1a12533e895c90610c8c9084903390611a78565b6000828152602081905260409020600a015462010000900460ff168015610f7b57506000828152602081905260409020600a01546301000000900460ff165b610f975760405162461bcd60e51b81526004016104d5906115c8565b6000828152602081905260409020600201546001600160a01b0382811691161415611071576000828152602081905260408082206005015490516001600160a01b0384169282156108fc02929190818181858888f1935050505061100d5760405162461bcd60e51b81526004016104d590611998565b600082815260208190526040908190206005015490517ff1fb547dc94fe2543d211b416c861f5a2e4423e2c513dcd47d270ef67f3bca01916110529185918591611bae565b60405180910390a1600082815260208190526040812060050155611147565b6000828152602081905260409020600101546001600160a01b0382811691161415611147576000828152602081905260408082206004015490516001600160a01b0384169282156108fc02929190818181858888f193505050506110e75760405162461bcd60e51b81526004016104d590611769565b600082815260208190526040908190206004015490517ff1fb547dc94fe2543d211b416c861f5a2e4423e2c513dcd47d270ef67f3bca019161112c9185918591611bae565b60405180910390a16000828152602081905260408120600401555b506000908152602081905260408120600380820192909255600601805460ff19169091179055565b604051806101c001604052806000815260200160006001600160a01b0316815260200160006001600160a01b03168152602001600081526020016000815260200160008152602001600060048111156111d857634e487b7160e01b600052602160045260246000fd5b81526060602082018190526000604083018190529082018190526080820181905260a0820181905260c0820181905260e09091015290565b82805461121c90611c00565b90600052602060002090601f01602090048101928261123e5760008555611284565b82601f1061125757805160ff1916838001178555611284565b82800160010185558215611284579182015b82811115611284578251825591602001919060010190611269565b50611290929150611294565b5090565b5b808211156112905760008155600101611295565b80356001600160a01b03811681146112c057600080fd5b919050565b600080600080600060a086880312156112dc578081fd5b6112e5866112a9565b9450602086013567ffffffffffffffff80821115611301578283fd5b818801915088601f830112611314578283fd5b81358181111561132657611326611c6c565b604051601f8201601f19908116603f0116810190838211818310171561134e5761134e611c6c565b816040528281528b6020848701011115611366578586fd5b826020860160208301379182016020019490945296999698505050506040850135946060810135946080909101359350915050565b600080604083850312156113ad578182fd5b6113b6836112a9565b946020939093013593505050565b6000602082840312156113d5578081fd5b5035919050565b600080604083850312156113ee578182fd5b82359150602083013560058110611403578182fd5b809150509250929050565b6001600160a01b03169052565b15159052565b6005811061143f57634e487b7160e01b600052602160045260246000fd5b9052565b60008151808452815b818110156114685760208185018101518683018201520161144c565b818111156114795782602083870101525b50601f01601f19169290920160200192915050565b60208082528251828201819052600091906040908185019080840286018301878501865b838110156115ba57603f1989840301855281516101c081518552888201516114dc8a87018261140e565b50878201516114ed8987018261140e565b50606082810151908601526080808301519086015260a0808301519086015260c08083015161151e82880182611421565b505060e080830151828288015261153783880182611443565b92505050610100808301518187015250610120808301518187015250610140808301516115668288018261141b565b50506101608083015161157b8288018261141b565b5050610180808301516115908288018261141b565b50506101a091820151916115a68682018461141b565b5095880195935050908601906001016114b2565b509098975050505050505050565b60208082526027908201527f50726f6a656374206973206e6f7420766572696669656420627920626f74682060408201527f7061727469657300000000000000000000000000000000000000000000000000606082015260800190565b60208082526022908201527f436c69656e7420616c7265616479207369676e65642074686520636f6e74726160408201526118dd60f21b606082015260800190565b6020808252601a908201527f50726f6a656374206973206e6f7420696e2070726f6772657373000000000000604082015260600190565b60208082526018908201527f50726f6a656374206973206e6f7420636f6d706c657465640000000000000000604082015260600190565b60208082526019908201527f46756e647320616c7265616479207472616e7366657272656400000000000000604082015260600190565b6020808252602a908201527f4f6e6c792074686520667265656c616e6365722063616e2063616c6c2074686960408201527f732066756e6374696f6e00000000000000000000000000000000000000000000606082015260800190565b60208082526014908201527f436c69656e7420726566756e64206661696c6564000000000000000000000000604082015260600190565b60208082526026908201527f4f6e6c792074686520636c69656e742063616e2063616c6c207468697320667560408201527f6e6374696f6e0000000000000000000000000000000000000000000000000000606082015260800190565b60208082526021908201527f496e636f7272656374207365637572697479206465706f73697420616d6f756e6040820152601d60fa1b606082015260800190565b60208082526026908201527f467265656c616e63657220616c7265616479207369676e65642074686520636f60408201527f6e74726163740000000000000000000000000000000000000000000000000000606082015260800190565b60208082526032908201527f50726f6a65637420627564676574206973206e6f7420657175616c20746f207460408201527f686520616d6f756e742070726f76696465640000000000000000000000000000606082015260800190565b60208082526028908201527f50726f6a656374206d75737420626520766572696669656420627920636c696560408201527f6e74206669727374000000000000000000000000000000000000000000000000606082015260800190565b60208082526023908201527f436c69656e74206d757374207369676e2074686520636f6e74726163742066696040820152621c9cdd60ea1b606082015260800190565b60208082526018908201527f467265656c616e63657220726566756e64206661696c65640000000000000000604082015260600190565b60208082526023908201527f496e73756666696369656e742066756e647320696e20636c69656e742077616c6040820152621b195d60ea1b606082015260800190565b60208082526027908201527f467265656c616e636572206d757374207369676e2074686520636f6e7472616360408201527f7420666972737400000000000000000000000000000000000000000000000000606082015260800190565b90815260200190565b9182526001600160a01b0316602082015260400190565b60008782526001600160a01b03808816602084015280871660408401525060c06060830152611ac160c0830186611443565b60808301949094525060a00152949350505050565b9384526001600160a01b03928316602085015291166040830152606082015260800190565b60008f82526001600160a01b038f1660208301526001600160a01b038e1660408301528c60608301528b60808301528a60a0830152611b3d60c083018b611421565b6101c060e0830152611b536101c083018a611443565b90508761010083015286610120830152611b7161014083018761141b565b611b7f61016083018661141b565b611b8d61018083018561141b565b611b9b6101a083018461141b565b9f9e505050505050505050505050505050565b9283526001600160a01b03919091166020830152604082015260600190565b82815260408101611be16020830184611421565b9392505050565b60008219821115611bfb57611bfb611c56565b500190565b600281046001821680611c1457607f821691505b60208210811415611c3557634e487b7160e01b600052602260045260246000fd5b50919050565b6000600019821415611c4f57611c4f611c56565b5060010190565b634e487b7160e01b600052601160045260246000fd5b634e487b7160e01b600052604160045260246000fdfea164736f6c6343000801000a",
  "immutableReferences": {},
  "source": "// SPDX-License-Identifier: MIT\npragma solidity ^0.8.1;\n\ncontract FreelanceShieldContract {\n    enum ProjectState { Created, InProgress, Completed, Closed, Cancelled }\n\n    struct Contract {\n        uint256 id;\n        address client;\n        address freelancer;\n        uint256 securityDepositAmount;\n        uint256 clientSecurityDeposit;\n        uint256 freelancerSecurityDeposit;\n        ProjectState state;\n        string projectName;\n        uint256 deadline;\n        uint256 totalBudget;\n        bool freelancerSigned;\n        bool clientSigned;\n        bool projectVerified;\n        bool fundTransferred;\n    }\n    \n    mapping(uint256 => Contract) public contracts;\n    uint256 public contractCounter;\n\n    mapping(address => uint256[]) public clientContracts;\n    mapping(address => uint256[]) public freelancerContracts;\n\n    event ContractCreated(uint256 contractId, address client, address freelancer, string projectName, uint256 deadline, uint256 totalBudget);\n    event SecurityDepositDeposited(uint256 contractId, address depositor, uint256 amount);\n    event ProjectStateChanged(uint256 contractId, ProjectState newState);\n    event ProjectCompleted(uint256 contractId);\n    event ProjectVerified(uint256 contractId, address verifier);\n    event FundTransferred(uint256 contractId, address from, address to, uint256 amount);\n    event SecurityDepositRefunded(uint256 contractId, address payee, uint256 amount);\n\n    modifier onlyClient(uint256 contractId) {\n        require(msg.sender == contracts[contractId].client, \"Only the client can call this function\");\n        _;\n    }\n\n    modifier onlyFreelancer(uint256 contractId) {\n        require(msg.sender == contracts[contractId].freelancer, \"Only the freelancer can call this function\");\n        _;\n    }\n\n    function createContract(\n        address _freelancer,\n        string memory _projectName,\n        uint256 _deadline,\n        uint256 _totalBudget,\n        uint256 _securityDepositAmount\n    ) external {\n        contractCounter++;\n        contracts[contractCounter] = Contract({\n            id: contractCounter,\n            client: msg.sender,\n            freelancer: _freelancer,\n            state: ProjectState.Created,\n            projectName: _projectName,\n            deadline: _deadline,\n            totalBudget: _totalBudget,\n            securityDepositAmount: _securityDepositAmount,\n            clientSecurityDeposit: 0,\n            freelancerSecurityDeposit: 0,\n            freelancerSigned: false,\n            clientSigned: false,\n            projectVerified: false,\n            fundTransferred: false\n        });\n\n        clientContracts[msg.sender].push(contractCounter);\n        freelancerContracts[_freelancer].push(contractCounter);\n\n        emit ContractCreated(contractCounter, msg.sender, _freelancer, _projectName, _deadline, _totalBudget);\n    }\n\n    function depositSecurityDeposit(uint256 contractId) external payable {\n        require(contracts[contractId].securityDepositAmount == msg.value, \"Incorrect security deposit amount\");\n\n        if (msg.sender == contracts[contractId].client) {\n            require(!contracts[contractId].clientSigned, \"Client already signed the contract\");\n            contracts[contractId].clientSigned = true;\n            contracts[contractId].clientSecurityDeposit += msg.value;\n        } else if (msg.sender == contracts[contractId].freelancer) {\n            require(!contracts[contractId].freelancerSigned, \"Freelancer already signed the contract\");\n            contracts[contractId].freelancerSigned = true;\n            contracts[contractId].freelancerSecurityDeposit += msg.value;\n        }\n        emit SecurityDepositDeposited(contractId, msg.sender, msg.value);\n    }\n\n    function updateProjectState(uint256 contractId, ProjectState newState) external onlyFreelancer(contractId) {\n        require(contracts[contractId].freelancerSigned, \"Freelancer must sign the contract first\");\n        contracts[contractId].state = newState;\n        emit ProjectStateChanged(contractId, newState);\n    }\n\n    function markProjectCompleted(uint256 contractId) external onlyFreelancer(contractId) {\n        require(contracts[contractId].state == ProjectState.InProgress, \"Project is not in progress\");\n        contracts[contractId].state = ProjectState.Completed;\n        emit ProjectCompleted(contractId);\n    }\n\n    function verifyProject(uint256 contractId) external onlyClient(contractId) {\n        require(contracts[contractId].clientSigned, \"Client must sign the contract first\");\n        require(contracts[contractId].state == ProjectState.Completed, \"Project is not completed\");\n        contracts[contractId].projectVerified = true;\n        emit ProjectVerified(contractId, msg.sender);\n    }\n\n    function transferFund(uint256 contractId) external payable  onlyClient(contractId) {\n        require(contracts[contractId].projectVerified, \"Project must be verified by client first\");\n        require(contracts[contractId].totalBudget == msg.value, \"Project budget is not equal to the amount provided\");\n\n        // Check if the contract is not already funded\n        require(!contracts[contractId].fundTransferred, \"Funds already transferred\");\n\n        // Ensure that client have enough funds\n        require(address(this).balance >= contracts[contractId].totalBudget, \"Insufficient funds in client wallet\");\n\n        // Transfer funds to freelancer\n        payable(contracts[contractId].freelancer).transfer(msg.value);\n    \n        // payable(contracts[contractId].freelancer).transfer(contracts[contractId].totalBudget);\n        \n        contracts[contractId].fundTransferred = true;\n        emit FundTransferred(contractId, contracts[contractId].client, contracts[contractId].freelancer, msg.value);\n\n        // Refund security deposit to freelancer\n        refundSecurityDeposit(contractId, contracts[contractId].freelancer);\n\n        // Refund security deposit to client\n        refundSecurityDeposit(contractId, contracts[contractId].client);\n    }\n\n    function refundSecurityDeposit(uint256 contractId, address payee) private {\n        require(contracts[contractId].projectVerified && contracts[contractId].fundTransferred, \"Project is not verified by both parties\");\n\n        if (payee == contracts[contractId].freelancer) {\n            require(payable(payee).send(contracts[contractId].freelancerSecurityDeposit), \"Freelancer refund failed\");\n\n            // payable(payee).transfer(contracts[contractId].freelancerSecurityDeposit);\n            \n            emit SecurityDepositRefunded(contractId, payee, contracts[contractId].freelancerSecurityDeposit);\n            contracts[contractId].freelancerSecurityDeposit = 0;\n        } else if (payee == contracts[contractId].client) {\n            require(payable(payee).send(contracts[contractId].clientSecurityDeposit), \"Client refund failed\");\n\n            // payable(payee).transfer(contracts[contractId].clientSecurityDeposit);\n            \n            emit SecurityDepositRefunded(contractId, payee, contracts[contractId].clientSecurityDeposit);\n            contracts[contractId].clientSecurityDeposit = 0;\n        }\n\n        contracts[contractId].securityDepositAmount = 0;\n        contracts[contractId].state = ProjectState.Closed;\n\n        \n    }\n\n    function getAllContracts() external view returns (Contract[] memory) {\n        Contract[] memory _contracts = new Contract[](contractCounter);\n        for (uint256 i = 0; i < contractCounter; i++) {\n            _contracts[i] = contracts[i + 1];\n        }\n        return _contracts;\n    }\n}",
  "sourcePath": "/home/ujjwal/blockchain-projects/FreelanceShield/src/contracts/FreelanceShieldContract.sol",
  "compiler": {
    "name": "solc",
    "version": "0.8.1+commit.df193b15.Emscripten.clang"
  },
  "schemaVersion": "3.4.16",
  "updatedAt": "2024-01-21T16:35:30.586Z",
  "networkType": "ethereum",
  "devdoc": {
    "kind": "dev",
    "methods": {},
    "version": 1
  },
  "userdoc": {
    "kind": "user",
    "methods": {},
    "version": 1
  }
}