{
  "contractName": "FreelanceShieldContract",
  "abi": [
    {
      "anonymous": false,
      "inputs": [
        {
          "indexed": false,
          "internalType": "uint256",
          "name": "contractId",
          "type": "uint256"
        },
        {
          "indexed": false,
          "internalType": "address",
          "name": "client",
          "type": "address"
        },
        {
          "indexed": false,
          "internalType": "address",
          "name": "freelancer",
          "type": "address"
        },
        {
          "indexed": false,
          "internalType": "string",
          "name": "projectName",
          "type": "string"
        },
        {
          "indexed": false,
          "internalType": "uint256",
          "name": "deadline",
          "type": "uint256"
        },
        {
          "indexed": false,
          "internalType": "uint256",
          "name": "totalBudget",
          "type": "uint256"
        }
      ],
      "name": "ContractCreated",
      "type": "event"
    },
    {
      "anonymous": false,
      "inputs": [
        {
          "indexed": false,
          "internalType": "uint256",
          "name": "contractId",
          "type": "uint256"
        },
        {
          "indexed": false,
          "internalType": "address",
          "name": "from",
          "type": "address"
        },
        {
          "indexed": false,
          "internalType": "address",
          "name": "to",
          "type": "address"
        },
        {
          "indexed": false,
          "internalType": "uint256",
          "name": "amount",
          "type": "uint256"
        }
      ],
      "name": "FundTransferred",
      "type": "event"
    },
    {
      "anonymous": false,
      "inputs": [
        {
          "indexed": false,
          "internalType": "uint256",
          "name": "contractId",
          "type": "uint256"
        }
      ],
      "name": "ProjectCompleted",
      "type": "event"
    },
    {
      "anonymous": false,
      "inputs": [
        {
          "indexed": false,
          "internalType": "uint256",
          "name": "contractId",
          "type": "uint256"
        },
        {
          "indexed": false,
          "internalType": "enum FreelanceShieldContract.ProjectState",
          "name": "newState",
          "type": "uint8"
        }
      ],
      "name": "ProjectStateChanged",
      "type": "event"
    },
    {
      "anonymous": false,
      "inputs": [
        {
          "indexed": false,
          "internalType": "uint256",
          "name": "contractId",
          "type": "uint256"
        },
        {
          "indexed": false,
          "internalType": "address",
          "name": "verifier",
          "type": "address"
        }
      ],
      "name": "ProjectVerified",
      "type": "event"
    },
    {
      "anonymous": false,
      "inputs": [
        {
          "indexed": false,
          "internalType": "uint256",
          "name": "contractId",
          "type": "uint256"
        },
        {
          "indexed": false,
          "internalType": "address",
          "name": "depositor",
          "type": "address"
        },
        {
          "indexed": false,
          "internalType": "uint256",
          "name": "amount",
          "type": "uint256"
        }
      ],
      "name": "SecurityDepositDeposited",
      "type": "event"
    },
    {
      "anonymous": false,
      "inputs": [
        {
          "indexed": false,
          "internalType": "uint256",
          "name": "contractId",
          "type": "uint256"
        },
        {
          "indexed": false,
          "internalType": "address",
          "name": "payee",
          "type": "address"
        },
        {
          "indexed": false,
          "internalType": "uint256",
          "name": "amount",
          "type": "uint256"
        }
      ],
      "name": "SecurityDepositRefunded",
      "type": "event"
    },
    {
      "inputs": [
        {
          "internalType": "address",
          "name": "",
          "type": "address"
        },
        {
          "internalType": "uint256",
          "name": "",
          "type": "uint256"
        }
      ],
      "name": "clientContracts",
      "outputs": [
        {
          "internalType": "uint256",
          "name": "",
          "type": "uint256"
        }
      ],
      "stateMutability": "view",
      "type": "function",
      "constant": true
    },
    {
      "inputs": [],
      "name": "contractCounter",
      "outputs": [
        {
          "internalType": "uint256",
          "name": "",
          "type": "uint256"
        }
      ],
      "stateMutability": "view",
      "type": "function",
      "constant": true
    },
    {
      "inputs": [
        {
          "internalType": "uint256",
          "name": "",
          "type": "uint256"
        }
      ],
      "name": "contracts",
      "outputs": [
        {
          "internalType": "address",
          "name": "client",
          "type": "address"
        },
        {
          "internalType": "address",
          "name": "freelancer",
          "type": "address"
        },
        {
          "internalType": "uint256",
          "name": "securityDepositAmount",
          "type": "uint256"
        },
        {
          "internalType": "uint256",
          "name": "clientSecurityDeposit",
          "type": "uint256"
        },
        {
          "internalType": "uint256",
          "name": "freelancerSecurityDeposit",
          "type": "uint256"
        },
        {
          "internalType": "enum FreelanceShieldContract.ProjectState",
          "name": "state",
          "type": "uint8"
        },
        {
          "internalType": "string",
          "name": "projectName",
          "type": "string"
        },
        {
          "internalType": "uint256",
          "name": "deadline",
          "type": "uint256"
        },
        {
          "internalType": "uint256",
          "name": "totalBudget",
          "type": "uint256"
        },
        {
          "internalType": "bool",
          "name": "freelancerSigned",
          "type": "bool"
        },
        {
          "internalType": "bool",
          "name": "clientSigned",
          "type": "bool"
        },
        {
          "internalType": "bool",
          "name": "projectVerified",
          "type": "bool"
        },
        {
          "internalType": "bool",
          "name": "fundTransferred",
          "type": "bool"
        }
      ],
      "stateMutability": "view",
      "type": "function",
      "constant": true
    },
    {
      "inputs": [
        {
          "internalType": "address",
          "name": "",
          "type": "address"
        },
        {
          "internalType": "uint256",
          "name": "",
          "type": "uint256"
        }
      ],
      "name": "freelancerContracts",
      "outputs": [
        {
          "internalType": "uint256",
          "name": "",
          "type": "uint256"
        }
      ],
      "stateMutability": "view",
      "type": "function",
      "constant": true
    },
    {
      "inputs": [
        {
          "internalType": "address",
          "name": "_freelancer",
          "type": "address"
        },
        {
          "internalType": "string",
          "name": "_projectName",
          "type": "string"
        },
        {
          "internalType": "uint256",
          "name": "_deadline",
          "type": "uint256"
        },
        {
          "internalType": "uint256",
          "name": "_totalBudget",
          "type": "uint256"
        },
        {
          "internalType": "uint256",
          "name": "_securityDepositAmount",
          "type": "uint256"
        }
      ],
      "name": "createContract",
      "outputs": [],
      "stateMutability": "nonpayable",
      "type": "function"
    },
    {
      "inputs": [
        {
          "internalType": "uint256",
          "name": "contractId",
          "type": "uint256"
        }
      ],
      "name": "depositSecurityDeposit",
      "outputs": [],
      "stateMutability": "payable",
      "type": "function",
      "payable": true
    },
    {
      "inputs": [
        {
          "internalType": "uint256",
          "name": "contractId",
          "type": "uint256"
        },
        {
          "internalType": "enum FreelanceShieldContract.ProjectState",
          "name": "newState",
          "type": "uint8"
        }
      ],
      "name": "updateProjectState",
      "outputs": [],
      "stateMutability": "nonpayable",
      "type": "function"
    },
    {
      "inputs": [
        {
          "internalType": "uint256",
          "name": "contractId",
          "type": "uint256"
        }
      ],
      "name": "markProjectCompleted",
      "outputs": [],
      "stateMutability": "nonpayable",
      "type": "function"
    },
    {
      "inputs": [
        {
          "internalType": "uint256",
          "name": "contractId",
          "type": "uint256"
        }
      ],
      "name": "verifyProject",
      "outputs": [],
      "stateMutability": "nonpayable",
      "type": "function"
    },
    {
      "inputs": [
        {
          "internalType": "uint256",
          "name": "contractId",
          "type": "uint256"
        }
      ],
      "name": "transferFund",
      "outputs": [],
      "stateMutability": "payable",
      "type": "function",
      "payable": true
    }
  ],
  "bytecode": "0x608060405234801561001057600080fd5b506117a9806100206000396000f3fe6080604052600436106100b15760003560e01c80636886f10d11610069578063cb5b7ca01161004e578063cb5b7ca0146101af578063d2833709146101cf578063ed1ca91a146101e2576100b1565b80636886f10d1461017c57806389e33d9d1461018f576100b1565b8063346759671161009a5780633467596714610103578063474da79a14610123578063632879091461015c576100b1565b8063067bd3b4146100b65780633257548c146100e1575b600080fd5b3480156100c257600080fd5b506100cb610202565b6040516100d8919061163c565b60405180910390f35b3480156100ed57600080fd5b506101016100fc36600461104a565b610208565b005b34801561010f57600080fd5b5061010161011e366004610f33565b6102fc565b34801561012f57600080fd5b5061014361013e366004611032565b61055d565b6040516100d89d9c9b9a999897969594939291906110ef565b34801561016857600080fd5b506100cb610177366004611009565b610668565b61010161018a366004611032565b610699565b34801561019b57600080fd5b506100cb6101aa366004611009565b6108af565b3480156101bb57600080fd5b506101016101ca366004611032565b6108cb565b6101016101dd366004611032565b6109b1565b3480156101ee57600080fd5b506101016101fd366004611032565b610b3c565b60015481565b60008281526020819052604090206001015482906001600160a01b0316331461024c5760405162461bcd60e51b8152600401610243906112d9565b60405180910390fd5b60008381526020819052604090206009015460ff1661027d5760405162461bcd60e51b8152600401610243906115df565b6000838152602081905260409020600501805483919060ff191660018360048111156102b957634e487b7160e01b600052602160045260246000fd5b02179055507f84748ac78940dbf14129c6da5df32a04b530b472eaddadb4d7b62ea4e88bd46d83836040516102ef9291906116e7565b60405180910390a1505050565b6001805490600061030c83611755565b9091555050604080516101a0810182523381526001600160a01b0387811660208084019182528385018681526000606086018181526080870182815260a0880183815260c089018e905260e089018d905261010089018c905261012089018490526101408901849052610160890184905261018089018490526001805485529584905298909220875181549088167fffffffffffffffffffffffff00000000000000000000000000000000000000009182161782559551818601805491909816961695909517909555905160028401559251600383015591516004808301919091559351600582018054949592949193909260ff199290921691849081111561042557634e487b7160e01b600052602160045260246000fd5b021790555060c08201518051610445916006840191602090910190610e7e565b5060e082015160078201556101008083015160088301556101208301516009909201805461014085015161016086015161018090960151151563010000000263ff00000019961515620100000262ff00001992151590950261ff001996151560ff199094169390931795909516919091171691909117929092161790553360008181526002602090815260408083206001805482548083018455928652848620909201919091556001600160a01b038a168452600383528184208154815480840183559186529390942090930191909155905490517fd1fa394b8f946b876ba7be2dfc86918d981e40ec7b905b4180caf54002fefc0d9261054e9291899089908990899061165c565b60405180910390a15050505050565b60006020819052908152604090208054600182015460028301546003840154600485015460058601546006870180546001600160a01b0397881698969097169694959394929360ff909216926105b29061171a565b80601f01602080910402602001604051908101604052809291908181526020018280546105de9061171a565b801561062b5780601f106106005761010080835404028352916020019161062b565b820191906000526020600020905b81548152906001019060200180831161060e57829003601f168201915b50505050600783015460088401546009909401549293909290915060ff80821691610100810482169162010000820481169163010000009004168d565b6003602052816000526040600020818154811061068457600080fd5b90600052602060002001600091509150505481565b60008181526020819052604090205481906001600160a01b031633146106d15760405162461bcd60e51b81526004016102439061136d565b60008281526020819052604090206009015462010000900460ff166107085760405162461bcd60e51b8152600401610243906114c5565b60008281526020819052604090206008015434146107385760405162461bcd60e51b815260040161024390611468565b6000828152602081905260409020600901546301000000900460ff16156107715760405162461bcd60e51b8152600401610243906112a2565b6000828152602081905260409020600801544710156107a25760405162461bcd60e51b81526004016102439061159c565b6000828152602081905260408082206001015490516001600160a01b03909116913480156108fc02929091818181858888f193505050501580156107ea573d6000803e3d6000fd5b506000828152602081905260409081902060098101805463ff0000001916630100000017905580546001919091015491517fb821359465793d23a94be651a0c99477cd92fa74681fdb5913c835b49b62b8399261085a9286926001600160a01b03918216929091169034906116a3565b60405180910390a16000828152602081905260409020600101546108889083906001600160a01b0316610c4f565b6000828152602081905260409020546108ab9083906001600160a01b0316610c4f565b5050565b6002602052816000526040600020818154811061068457600080fd5b60008181526020819052604090206001015481906001600160a01b031633146109065760405162461bcd60e51b8152600401610243906112d9565b600160008381526020819052604090206005015460ff16600481111561093c57634e487b7160e01b600052602160045260246000fd5b146109595760405162461bcd60e51b815260040161024390611234565b60008281526020819052604090819020600501805460ff19166002179055517f60d8df137e489b6216738e436244ca4700bd6d0c8371d3c8d9c80b54538111b9906109a590849061163c565b60405180910390a15050565b60008181526020819052604090206002015434146109e15760405162461bcd60e51b8152600401610243906113ca565b6000818152602081905260409020546001600160a01b0316331415610a7457600081815260208190526040902060090154610100900460ff1615610a375760405162461bcd60e51b8152600401610243906111f2565b600081815260208190526040812060098101805461ff0019166101001790556003018054349290610a69908490611702565b90915550610afe9050565b6000818152602081905260409020600101546001600160a01b0316331415610afe5760008181526020819052604090206009015460ff1615610ac85760405162461bcd60e51b81526004016102439061140b565b600081815260208190526040812060098101805460ff191660011790556004018054349290610af8908490611702565b90915550505b7fe48e5b3057451d7f8180eff26789021517ad757c82c4cb5f3d58dac52ea9a489813334604051610b31939291906116c8565b60405180910390a150565b60008181526020819052604090205481906001600160a01b03163314610b745760405162461bcd60e51b81526004016102439061136d565b600082815260208190526040902060090154610100900460ff16610baa5760405162461bcd60e51b815260040161024390611522565b600260008381526020819052604090206005015460ff166004811115610be057634e487b7160e01b600052602160045260246000fd5b14610bfd5760405162461bcd60e51b81526004016102439061126b565b60008281526020819052604090819020600901805462ff0000191662010000179055517fa8993bbe79af1071dc039c1144feccfba01680aa0fdd10a4e92f1a12533e895c906109a59084903390611645565b60008281526020819052604090206009015462010000900460ff168015610c8e57506000828152602081905260409020600901546301000000900460ff165b610caa5760405162461bcd60e51b815260040161024390611195565b6000828152602081905260409020600101546001600160a01b0382811691161415610d84576000828152602081905260408082206004015490516001600160a01b0384169282156108fc02929190818181858888f19350505050610d205760405162461bcd60e51b815260040161024390611565565b600082815260208190526040908190206004015490517ff1fb547dc94fe2543d211b416c861f5a2e4423e2c513dcd47d270ef67f3bca0191610d6591859185916116c8565b60405180910390a1600082815260208190526040812060040155610e57565b6000828152602081905260409020546001600160a01b0382811691161415610e57576000828152602081905260408082206003015490516001600160a01b0384169282156108fc02929190818181858888f19350505050610df75760405162461bcd60e51b815260040161024390611336565b600082815260208190526040908190206003015490517ff1fb547dc94fe2543d211b416c861f5a2e4423e2c513dcd47d270ef67f3bca0191610e3c91859185916116c8565b60405180910390a16000828152602081905260408120600301555b5060009081526020819052604081206002810191909155600501805460ff19166003179055565b828054610e8a9061171a565b90600052602060002090601f016020900481019282610eac5760008555610ef2565b82601f10610ec557805160ff1916838001178555610ef2565b82800160010185558215610ef2579182015b82811115610ef2578251825591602001919060010190610ed7565b50610efe929150610f02565b5090565b5b80821115610efe5760008155600101610f03565b80356001600160a01b0381168114610f2e57600080fd5b919050565b600080600080600060a08688031215610f4a578081fd5b610f5386610f17565b9450602086013567ffffffffffffffff80821115610f6f578283fd5b818801915088601f830112610f82578283fd5b813581811115610f9457610f94611786565b604051601f8201601f19908116603f01168101908382118183101715610fbc57610fbc611786565b816040528281528b6020848701011115610fd4578586fd5b826020860160208301379182016020019490945296999698505050506040850135946060810135946080909101359350915050565b6000806040838503121561101b578182fd5b61102483610f17565b946020939093013593505050565b600060208284031215611043578081fd5b5035919050565b6000806040838503121561105c578182fd5b82359150602083013560058110611071578182fd5b809150509250929050565b15159052565b600581106110a057634e487b7160e01b600052602160045260246000fd5b9052565b60008151808452815b818110156110c9576020818501810151868301820152016110ad565b818111156110da5782602083870101525b50601f01601f19169290920160200192915050565b60006001600160a01b038f1682526001600160a01b038e1660208301528c60408301528b60608301528a608083015261112b60a083018b611082565b6101a060c08301526111416101a083018a6110a4565b90508760e08301528661010083015285151561012083015261116761014083018661107c565b61117561016083018561107c565b61118361018083018461107c565b9e9d5050505050505050505050505050565b60208082526027908201527f50726f6a656374206973206e6f7420766572696669656420627920626f74682060408201527f7061727469657300000000000000000000000000000000000000000000000000606082015260800190565b60208082526022908201527f436c69656e7420616c7265616479207369676e65642074686520636f6e74726160408201526118dd60f21b606082015260800190565b6020808252601a908201527f50726f6a656374206973206e6f7420696e2070726f6772657373000000000000604082015260600190565b60208082526018908201527f50726f6a656374206973206e6f7420636f6d706c657465640000000000000000604082015260600190565b60208082526019908201527f46756e647320616c7265616479207472616e7366657272656400000000000000604082015260600190565b6020808252602a908201527f4f6e6c792074686520667265656c616e6365722063616e2063616c6c2074686960408201527f732066756e6374696f6e00000000000000000000000000000000000000000000606082015260800190565b60208082526014908201527f436c69656e7420726566756e64206661696c6564000000000000000000000000604082015260600190565b60208082526026908201527f4f6e6c792074686520636c69656e742063616e2063616c6c207468697320667560408201527f6e6374696f6e0000000000000000000000000000000000000000000000000000606082015260800190565b60208082526021908201527f496e636f7272656374207365637572697479206465706f73697420616d6f756e6040820152601d60fa1b606082015260800190565b60208082526026908201527f467265656c616e63657220616c7265616479207369676e65642074686520636f60408201527f6e74726163740000000000000000000000000000000000000000000000000000606082015260800190565b60208082526032908201527f50726f6a65637420627564676574206973206e6f7420657175616c20746f207460408201527f686520616d6f756e742070726f76696465640000000000000000000000000000606082015260800190565b60208082526028908201527f50726f6a656374206d75737420626520766572696669656420627920636c696560408201527f6e74206669727374000000000000000000000000000000000000000000000000606082015260800190565b60208082526023908201527f436c69656e74206d757374207369676e2074686520636f6e74726163742066696040820152621c9cdd60ea1b606082015260800190565b60208082526018908201527f467265656c616e63657220726566756e64206661696c65640000000000000000604082015260600190565b60208082526023908201527f496e73756666696369656e742066756e647320696e20636c69656e742077616c6040820152621b195d60ea1b606082015260800190565b60208082526027908201527f467265656c616e636572206d757374207369676e2074686520636f6e7472616360408201527f7420666972737400000000000000000000000000000000000000000000000000606082015260800190565b90815260200190565b9182526001600160a01b0316602082015260400190565b60008782526001600160a01b03808816602084015280871660408401525060c0606083015261168e60c08301866110a4565b60808301949094525060a00152949350505050565b9384526001600160a01b03928316602085015291166040830152606082015260800190565b9283526001600160a01b03919091166020830152604082015260600190565b828152604081016116fb6020830184611082565b9392505050565b6000821982111561171557611715611770565b500190565b60028104600182168061172e57607f821691505b6020821081141561174f57634e487b7160e01b600052602260045260246000fd5b50919050565b600060001982141561176957611769611770565b5060010190565b634e487b7160e01b600052601160045260246000fd5b634e487b7160e01b600052604160045260246000fdfea164736f6c6343000801000a",
  "immutableReferences": {},
  "source": "// SPDX-License-Identifier: MIT\npragma solidity ^0.8.1;\n\ncontract FreelanceShieldContract {\n    enum ProjectState { Created, InProgress, Completed, Closed, Cancelled }\n\n    struct Contract {\n        address client;\n        address freelancer;\n        uint256 securityDepositAmount;\n        uint256 clientSecurityDeposit;\n        uint256 freelancerSecurityDeposit;\n        ProjectState state;\n        string projectName;\n        uint256 deadline;\n        uint256 totalBudget;\n        bool freelancerSigned;\n        bool clientSigned;\n        bool projectVerified;\n        bool fundTransferred;\n    }\n    \n    mapping(uint256 => Contract) public contracts;\n    uint256 public contractCounter;\n\n    mapping(address => uint256[]) public clientContracts;\n    mapping(address => uint256[]) public freelancerContracts;\n\n    event ContractCreated(uint256 contractId, address client, address freelancer, string projectName, uint256 deadline, uint256 totalBudget);\n    event SecurityDepositDeposited(uint256 contractId, address depositor, uint256 amount);\n    event ProjectStateChanged(uint256 contractId, ProjectState newState);\n    event ProjectCompleted(uint256 contractId);\n    event ProjectVerified(uint256 contractId, address verifier);\n    event FundTransferred(uint256 contractId, address from, address to, uint256 amount);\n    event SecurityDepositRefunded(uint256 contractId, address payee, uint256 amount);\n\n    modifier onlyClient(uint256 contractId) {\n        require(msg.sender == contracts[contractId].client, \"Only the client can call this function\");\n        _;\n    }\n\n    modifier onlyFreelancer(uint256 contractId) {\n        require(msg.sender == contracts[contractId].freelancer, \"Only the freelancer can call this function\");\n        _;\n    }\n\n    function createContract(\n        address _freelancer,\n        string memory _projectName,\n        uint256 _deadline,\n        uint256 _totalBudget,\n        uint256 _securityDepositAmount\n    ) external {\n        contractCounter++;\n        contracts[contractCounter] = Contract({\n            client: msg.sender,\n            freelancer: _freelancer,\n            state: ProjectState.Created,\n            projectName: _projectName,\n            deadline: _deadline,\n            totalBudget: _totalBudget,\n            securityDepositAmount: _securityDepositAmount,\n            clientSecurityDeposit: 0,\n            freelancerSecurityDeposit: 0,\n            freelancerSigned: false,\n            clientSigned: false,\n            projectVerified: false,\n            fundTransferred: false\n        });\n\n        clientContracts[msg.sender].push(contractCounter);\n        freelancerContracts[_freelancer].push(contractCounter);\n\n        emit ContractCreated(contractCounter, msg.sender, _freelancer, _projectName, _deadline, _totalBudget);\n    }\n\n    function depositSecurityDeposit(uint256 contractId) external payable {\n        require(contracts[contractId].securityDepositAmount == msg.value, \"Incorrect security deposit amount\");\n\n        if (msg.sender == contracts[contractId].client) {\n            require(!contracts[contractId].clientSigned, \"Client already signed the contract\");\n            contracts[contractId].clientSigned = true;\n            contracts[contractId].clientSecurityDeposit += msg.value;\n        } else if (msg.sender == contracts[contractId].freelancer) {\n            require(!contracts[contractId].freelancerSigned, \"Freelancer already signed the contract\");\n            contracts[contractId].freelancerSigned = true;\n            contracts[contractId].freelancerSecurityDeposit += msg.value;\n        }\n        emit SecurityDepositDeposited(contractId, msg.sender, msg.value);\n    }\n\n    function updateProjectState(uint256 contractId, ProjectState newState) external onlyFreelancer(contractId) {\n        require(contracts[contractId].freelancerSigned, \"Freelancer must sign the contract first\");\n        contracts[contractId].state = newState;\n        emit ProjectStateChanged(contractId, newState);\n    }\n\n    function markProjectCompleted(uint256 contractId) external onlyFreelancer(contractId) {\n        require(contracts[contractId].state == ProjectState.InProgress, \"Project is not in progress\");\n        contracts[contractId].state = ProjectState.Completed;\n        emit ProjectCompleted(contractId);\n    }\n\n    function verifyProject(uint256 contractId) external onlyClient(contractId) {\n        require(contracts[contractId].clientSigned, \"Client must sign the contract first\");\n        require(contracts[contractId].state == ProjectState.Completed, \"Project is not completed\");\n        contracts[contractId].projectVerified = true;\n        emit ProjectVerified(contractId, msg.sender);\n    }\n\n    function transferFund(uint256 contractId) external payable  onlyClient(contractId) {\n        require(contracts[contractId].projectVerified, \"Project must be verified by client first\");\n        require(contracts[contractId].totalBudget == msg.value, \"Project budget is not equal to the amount provided\");\n\n        // Check if the contract is not already funded\n        require(!contracts[contractId].fundTransferred, \"Funds already transferred\");\n\n        // Ensure that client have enough funds\n        require(address(this).balance >= contracts[contractId].totalBudget, \"Insufficient funds in client wallet\");\n\n        // Transfer funds to freelancer\n        payable(contracts[contractId].freelancer).transfer(msg.value);\n    \n        // payable(contracts[contractId].freelancer).transfer(contracts[contractId].totalBudget);\n        \n        contracts[contractId].fundTransferred = true;\n        emit FundTransferred(contractId, contracts[contractId].client, contracts[contractId].freelancer, msg.value);\n\n        // Refund security deposit to freelancer\n        refundSecurityDeposit(contractId, contracts[contractId].freelancer);\n\n        // Refund security deposit to client\n        refundSecurityDeposit(contractId, contracts[contractId].client);\n    }\n\n    function refundSecurityDeposit(uint256 contractId, address payee) private {\n        require(contracts[contractId].projectVerified && contracts[contractId].fundTransferred, \"Project is not verified by both parties\");\n\n        if (payee == contracts[contractId].freelancer) {\n            require(payable(payee).send(contracts[contractId].freelancerSecurityDeposit), \"Freelancer refund failed\");\n\n            // payable(payee).transfer(contracts[contractId].freelancerSecurityDeposit);\n            \n            emit SecurityDepositRefunded(contractId, payee, contracts[contractId].freelancerSecurityDeposit);\n            contracts[contractId].freelancerSecurityDeposit = 0;\n        } else if (payee == contracts[contractId].client) {\n            require(payable(payee).send(contracts[contractId].clientSecurityDeposit), \"Client refund failed\");\n\n            // payable(payee).transfer(contracts[contractId].clientSecurityDeposit);\n            \n            emit SecurityDepositRefunded(contractId, payee, contracts[contractId].clientSecurityDeposit);\n            contracts[contractId].clientSecurityDeposit = 0;\n        }\n\n        contracts[contractId].securityDepositAmount = 0;\n        contracts[contractId].state = ProjectState.Closed;\n\n        \n    }\n}",
  "sourcePath": "/home/ujjwal/blockchain-projects/FreelanceShield/src/contracts/FreelanceShieldContract.sol",
  "compiler": {
    "name": "solc",
    "version": "0.8.1+commit.df193b15.Emscripten.clang"
  },
  "schemaVersion": "3.4.16",
  "updatedAt": "2024-01-08T13:36:18.662Z",
  "networkType": "ethereum",
  "devdoc": {
    "kind": "dev",
    "methods": {},
    "version": 1
  },
  "userdoc": {
    "kind": "user",
    "methods": {},
    "version": 1
  }
}