{
  "contractName": "FreelanceShieldContract",
  "abi": [
    {
      "anonymous": false,
      "inputs": [
        {
          "indexed": false,
          "internalType": "uint256",
          "name": "contractId",
          "type": "uint256"
        },
        {
          "indexed": false,
          "internalType": "address",
          "name": "client",
          "type": "address"
        },
        {
          "indexed": false,
          "internalType": "address",
          "name": "freelancer",
          "type": "address"
        },
        {
          "indexed": false,
          "internalType": "string",
          "name": "projectName",
          "type": "string"
        },
        {
          "indexed": false,
          "internalType": "uint256",
          "name": "deadline",
          "type": "uint256"
        },
        {
          "indexed": false,
          "internalType": "uint256",
          "name": "totalBudget",
          "type": "uint256"
        }
      ],
      "name": "ContractCreated",
      "type": "event"
    },
    {
      "anonymous": false,
      "inputs": [
        {
          "indexed": false,
          "internalType": "uint256",
          "name": "contractId",
          "type": "uint256"
        },
        {
          "indexed": false,
          "internalType": "address",
          "name": "from",
          "type": "address"
        },
        {
          "indexed": false,
          "internalType": "address",
          "name": "to",
          "type": "address"
        },
        {
          "indexed": false,
          "internalType": "uint256",
          "name": "amount",
          "type": "uint256"
        }
      ],
      "name": "FundTransferred",
      "type": "event"
    },
    {
      "anonymous": false,
      "inputs": [
        {
          "indexed": false,
          "internalType": "uint256",
          "name": "contractId",
          "type": "uint256"
        }
      ],
      "name": "ProjectCompleted",
      "type": "event"
    },
    {
      "anonymous": false,
      "inputs": [
        {
          "indexed": false,
          "internalType": "uint256",
          "name": "contractId",
          "type": "uint256"
        },
        {
          "indexed": false,
          "internalType": "enum FreelanceShieldContract.ProjectState",
          "name": "newState",
          "type": "uint8"
        }
      ],
      "name": "ProjectStateChanged",
      "type": "event"
    },
    {
      "anonymous": false,
      "inputs": [
        {
          "indexed": false,
          "internalType": "uint256",
          "name": "contractId",
          "type": "uint256"
        },
        {
          "indexed": false,
          "internalType": "address",
          "name": "verifier",
          "type": "address"
        }
      ],
      "name": "ProjectVerified",
      "type": "event"
    },
    {
      "anonymous": false,
      "inputs": [
        {
          "indexed": false,
          "internalType": "uint256",
          "name": "contractId",
          "type": "uint256"
        },
        {
          "indexed": false,
          "internalType": "address",
          "name": "depositor",
          "type": "address"
        },
        {
          "indexed": false,
          "internalType": "uint256",
          "name": "amount",
          "type": "uint256"
        }
      ],
      "name": "SecurityDepositDeposited",
      "type": "event"
    },
    {
      "anonymous": false,
      "inputs": [
        {
          "indexed": false,
          "internalType": "uint256",
          "name": "contractId",
          "type": "uint256"
        },
        {
          "indexed": false,
          "internalType": "address",
          "name": "payee",
          "type": "address"
        },
        {
          "indexed": false,
          "internalType": "uint256",
          "name": "amount",
          "type": "uint256"
        }
      ],
      "name": "SecurityDepositRefunded",
      "type": "event"
    },
    {
      "inputs": [
        {
          "internalType": "address",
          "name": "",
          "type": "address"
        },
        {
          "internalType": "uint256",
          "name": "",
          "type": "uint256"
        }
      ],
      "name": "clientContracts",
      "outputs": [
        {
          "internalType": "uint256",
          "name": "",
          "type": "uint256"
        }
      ],
      "stateMutability": "view",
      "type": "function",
      "constant": true
    },
    {
      "inputs": [],
      "name": "contractCounter",
      "outputs": [
        {
          "internalType": "uint256",
          "name": "",
          "type": "uint256"
        }
      ],
      "stateMutability": "view",
      "type": "function",
      "constant": true
    },
    {
      "inputs": [
        {
          "internalType": "uint256",
          "name": "",
          "type": "uint256"
        }
      ],
      "name": "contracts",
      "outputs": [
        {
          "internalType": "uint256",
          "name": "id",
          "type": "uint256"
        },
        {
          "internalType": "address",
          "name": "client",
          "type": "address"
        },
        {
          "internalType": "address",
          "name": "freelancer",
          "type": "address"
        },
        {
          "internalType": "uint256",
          "name": "securityDepositAmount",
          "type": "uint256"
        },
        {
          "internalType": "uint256",
          "name": "clientSecurityDeposit",
          "type": "uint256"
        },
        {
          "internalType": "uint256",
          "name": "freelancerSecurityDeposit",
          "type": "uint256"
        },
        {
          "internalType": "enum FreelanceShieldContract.ProjectState",
          "name": "state",
          "type": "uint8"
        },
        {
          "internalType": "string",
          "name": "projectName",
          "type": "string"
        },
        {
          "internalType": "uint256",
          "name": "deadline",
          "type": "uint256"
        },
        {
          "internalType": "uint256",
          "name": "totalBudget",
          "type": "uint256"
        },
        {
          "internalType": "bool",
          "name": "freelancerSigned",
          "type": "bool"
        },
        {
          "internalType": "bool",
          "name": "clientSigned",
          "type": "bool"
        },
        {
          "internalType": "bool",
          "name": "projectVerified",
          "type": "bool"
        },
        {
          "internalType": "bool",
          "name": "fundTransferred",
          "type": "bool"
        }
      ],
      "stateMutability": "view",
      "type": "function",
      "constant": true
    },
    {
      "inputs": [
        {
          "internalType": "address",
          "name": "",
          "type": "address"
        },
        {
          "internalType": "uint256",
          "name": "",
          "type": "uint256"
        }
      ],
      "name": "freelancerContracts",
      "outputs": [
        {
          "internalType": "uint256",
          "name": "",
          "type": "uint256"
        }
      ],
      "stateMutability": "view",
      "type": "function",
      "constant": true
    },
    {
      "inputs": [
        {
          "internalType": "address",
          "name": "_freelancer",
          "type": "address"
        },
        {
          "internalType": "string",
          "name": "_projectName",
          "type": "string"
        },
        {
          "internalType": "uint256",
          "name": "_deadline",
          "type": "uint256"
        },
        {
          "internalType": "uint256",
          "name": "_totalBudget",
          "type": "uint256"
        },
        {
          "internalType": "uint256",
          "name": "_securityDepositAmount",
          "type": "uint256"
        }
      ],
      "name": "createContract",
      "outputs": [],
      "stateMutability": "nonpayable",
      "type": "function"
    },
    {
      "inputs": [
        {
          "internalType": "uint256",
          "name": "contractId",
          "type": "uint256"
        }
      ],
      "name": "depositSecurityDeposit",
      "outputs": [],
      "stateMutability": "payable",
      "type": "function",
      "payable": true
    },
    {
      "inputs": [
        {
          "internalType": "uint256",
          "name": "contractId",
          "type": "uint256"
        }
      ],
      "name": "updateProjectState",
      "outputs": [],
      "stateMutability": "nonpayable",
      "type": "function"
    },
    {
      "inputs": [
        {
          "internalType": "uint256",
          "name": "contractId",
          "type": "uint256"
        }
      ],
      "name": "markProjectCompleted",
      "outputs": [],
      "stateMutability": "nonpayable",
      "type": "function"
    },
    {
      "inputs": [
        {
          "internalType": "uint256",
          "name": "contractId",
          "type": "uint256"
        }
      ],
      "name": "verifyProject",
      "outputs": [],
      "stateMutability": "nonpayable",
      "type": "function"
    },
    {
      "inputs": [
        {
          "internalType": "uint256",
          "name": "contractId",
          "type": "uint256"
        }
      ],
      "name": "transferFund",
      "outputs": [],
      "stateMutability": "payable",
      "type": "function",
      "payable": true
    },
    {
      "inputs": [],
      "name": "getAllContracts",
      "outputs": [
        {
          "components": [
            {
              "internalType": "uint256",
              "name": "id",
              "type": "uint256"
            },
            {
              "internalType": "address",
              "name": "client",
              "type": "address"
            },
            {
              "internalType": "address",
              "name": "freelancer",
              "type": "address"
            },
            {
              "internalType": "uint256",
              "name": "securityDepositAmount",
              "type": "uint256"
            },
            {
              "internalType": "uint256",
              "name": "clientSecurityDeposit",
              "type": "uint256"
            },
            {
              "internalType": "uint256",
              "name": "freelancerSecurityDeposit",
              "type": "uint256"
            },
            {
              "internalType": "enum FreelanceShieldContract.ProjectState",
              "name": "state",
              "type": "uint8"
            },
            {
              "internalType": "string",
              "name": "projectName",
              "type": "string"
            },
            {
              "internalType": "uint256",
              "name": "deadline",
              "type": "uint256"
            },
            {
              "internalType": "uint256",
              "name": "totalBudget",
              "type": "uint256"
            },
            {
              "internalType": "bool",
              "name": "freelancerSigned",
              "type": "bool"
            },
            {
              "internalType": "bool",
              "name": "clientSigned",
              "type": "bool"
            },
            {
              "internalType": "bool",
              "name": "projectVerified",
              "type": "bool"
            },
            {
              "internalType": "bool",
              "name": "fundTransferred",
              "type": "bool"
            }
          ],
          "internalType": "struct FreelanceShieldContract.Contract[]",
          "name": "",
          "type": "tuple[]"
        }
      ],
      "stateMutability": "view",
      "type": "function",
      "constant": true
    }
  ],
  "bytecode": "0x608060405234801561001057600080fd5b50611c2f806100206000396000f3fe6080604052600436106100bc5760003560e01c80636886f10d11610074578063cb5b7ca01161004e578063cb5b7ca0146101dd578063d2833709146101fd578063ed1ca91a14610210576100bc565b80636886f10d1461018a57806389e33d9d1461019d578063964776a1146101bd576100bc565b806334675967116100a5578063346759671461010e578063474da79a14610130578063632879091461016a576100bc565b8063067bd3b4146100c157806318d3ce96146100ec575b600080fd5b3480156100cd57600080fd5b506100d6610230565b6040516100e39190611a0f565b60405180910390f35b3480156100f857600080fd5b50610101610236565b6040516100e3919061142e565b34801561011a57600080fd5b5061012e610129366004611297565b61049a565b005b34801561013c57600080fd5b5061015061014b366004611396565b610741565b6040516100e39e9d9c9b9a99989796959493929190611a9b565b34801561017657600080fd5b506100d661018536600461136d565b610853565b61012e610198366004611396565b610884565b3480156101a957600080fd5b506100d66101b836600461136d565b610aab565b3480156101c957600080fd5b5061012e6101d8366004611396565b610ac7565b3480156101e957600080fd5b5061012e6101f8366004611396565b610b90565b61012e61020b366004611396565b610c6a565b34801561021c57600080fd5b5061012e61022b366004611396565b610df8565b60015481565b6060600060015467ffffffffffffffff81111561026357634e487b7160e01b600052604160045260246000fd5b60405190808252806020026020018201604052801561029c57816020015b610289611141565b8152602001906001900390816102815790505b50905060005b600154811015610494576000806102ba836001611b88565b8152602080820192909252604090810160002081516101c0810183528154815260018201546001600160a01b0390811694820194909452600282015490931691830191909152600381015460608301526004808201546080840152600582015460a0840152600682015460c084019160ff9091169081111561034c57634e487b7160e01b600052602160045260246000fd5b600481111561036b57634e487b7160e01b600052602160045260246000fd5b815260200160078201805461037f90611ba0565b80601f01602080910402602001604051908101604052809291908181526020018280546103ab90611ba0565b80156103f85780601f106103cd576101008083540402835291602001916103f8565b820191906000526020600020905b8154815290600101906020018083116103db57829003601f168201915b50505091835250506008820154602082015260098201546040820152600a9091015460ff8082161515606084015261010082048116151560808401526201000082048116151560a0840152630100000090910416151560c090910152825183908390811061047657634e487b7160e01b600052603260045260246000fd5b6020026020010181905250808061048c90611bdb565b9150506102a2565b50905090565b600180549060006104aa83611bdb565b9190505550604051806101c001604052806001548152602001336001600160a01b03168152602001866001600160a01b0316815260200182815260200160008152602001600081526020016000600481111561051657634e487b7160e01b600052602160045260246000fd5b81526020808201879052604080830187905260608084018790526000608080860182905260a080870183905260c080880184905260e090970183905260018054845283875292859020885181559588015186840180547fffffffffffffffffffffffff00000000000000000000000000000000000000009081166001600160a01b039384161790915595890151600288018054909716911617909455918601516003850155908501516004808501919091559185015160058401559284015160068301805493949193909260ff199091169190849081111561060857634e487b7160e01b600052602160045260246000fd5b021790555060e082015180516106289160078401916020909101906111e2565b506101008281015160088301556101208301516009830155610140830151600a90920180546101608501516101808601516101a090960151151563010000000263ff00000019961515620100000262ff00001992151590950261ff001996151560ff199094169390931795909516919091171691909117929092161790553360008181526002602090815260408083206001805482548083018455928652848620909201919091556001600160a01b038a168452600383528184208154815480840183559186529390942090930191909155905490517fd1fa394b8f946b876ba7be2dfc86918d981e40ec7b905b4180caf54002fefc0d9261073292918990899089908990611a2f565b60405180910390a15050505050565b6000602081905290815260409020805460018201546002830154600384015460048501546005860154600687015460078801805497986001600160a01b0397881698979096169694959394929360ff9092169261079d90611ba0565b80601f01602080910402602001604051908101604052809291908181526020018280546107c990611ba0565b80156108165780601f106107eb57610100808354040283529160200191610816565b820191906000526020600020905b8154815290600101906020018083116107f957829003601f168201915b5050505060088301546009840154600a909401549293909290915060ff80821691610100810482169162010000820481169163010000009004168e565b6003602052816000526040600020818154811061086f57600080fd5b90600052602060002001600091509150505481565b60008181526020819052604090206001015481906001600160a01b031633146108c85760405162461bcd60e51b81526004016108bf90611740565b60405180910390fd5b6000828152602081905260409020600a015462010000900460ff166108ff5760405162461bcd60e51b81526004016108bf90611898565b600082815260208190526040902060090154341461092f5760405162461bcd60e51b81526004016108bf9061183b565b6000828152602081905260409020600a01546301000000900460ff16156109685760405162461bcd60e51b81526004016108bf90611675565b6000828152602081905260409020600901544710156109995760405162461bcd60e51b81526004016108bf9061196f565b6000828152602081905260408082206002015490516001600160a01b03909116913480156108fc02929091818181858888f193505050501580156109e1573d6000803e3d6000fd5b5060008281526020819052604090819020600a8101805463ff00000019166301000000179055600181015460029091015491517fb821359465793d23a94be651a0c99477cd92fa74681fdb5913c835b49b62b83992610a539286926001600160a01b0391821692909116903490611a76565b60405180910390a1600082815260208190526040902060020154610a819083906001600160a01b0316610f0e565b600082815260208190526040902060010154610aa79083906001600160a01b0316610f0e565b5050565b6002602052816000526040600020818154811061086f57600080fd5b60008181526020819052604090206002015481906001600160a01b03163314610b025760405162461bcd60e51b81526004016108bf906116ac565b6000828152602081905260409020600a015460ff16610b335760405162461bcd60e51b81526004016108bf906119b2565b60008281526020819052604090819020600601805460ff1916600190811790915590517f84748ac78940dbf14129c6da5df32a04b530b472eaddadb4d7b62ea4e88bd46d91610b8491859190611b6d565b60405180910390a15050565b60008181526020819052604090206002015481906001600160a01b03163314610bcb5760405162461bcd60e51b81526004016108bf906116ac565b600160008381526020819052604090206006015460ff166004811115610c0157634e487b7160e01b600052602160045260246000fd5b14610c1e5760405162461bcd60e51b81526004016108bf90611607565b60008281526020819052604090819020600601805460ff19166002179055517f60d8df137e489b6216738e436244ca4700bd6d0c8371d3c8d9c80b54538111b990610b84908490611a0f565b6000818152602081905260409020600301543414610c9a5760405162461bcd60e51b81526004016108bf9061179d565b6000818152602081905260409020600101546001600160a01b0316331415610d30576000818152602081905260409020600a0154610100900460ff1615610cf35760405162461bcd60e51b81526004016108bf906115c5565b6000818152602081905260408120600a8101805461ff0019166101001790556004018054349290610d25908490611b88565b90915550610dba9050565b6000818152602081905260409020600201546001600160a01b0316331415610dba576000818152602081905260409020600a015460ff1615610d845760405162461bcd60e51b81526004016108bf906117de565b6000818152602081905260408120600a8101805460ff191660011790556005018054349290610db4908490611b88565b90915550505b7fe48e5b3057451d7f8180eff26789021517ad757c82c4cb5f3d58dac52ea9a489813334604051610ded93929190611b4e565b60405180910390a150565b60008181526020819052604090206001015481906001600160a01b03163314610e335760405162461bcd60e51b81526004016108bf90611740565b6000828152602081905260409020600a0154610100900460ff16610e695760405162461bcd60e51b81526004016108bf906118f5565b600260008381526020819052604090206006015460ff166004811115610e9f57634e487b7160e01b600052602160045260246000fd5b14610ebc5760405162461bcd60e51b81526004016108bf9061163e565b60008281526020819052604090819020600a01805462ff0000191662010000179055517fa8993bbe79af1071dc039c1144feccfba01680aa0fdd10a4e92f1a12533e895c90610b849084903390611a18565b6000828152602081905260409020600a015462010000900460ff168015610f4d57506000828152602081905260409020600a01546301000000900460ff165b610f695760405162461bcd60e51b81526004016108bf90611568565b6000828152602081905260409020600201546001600160a01b0382811691161415611043576000828152602081905260408082206005015490516001600160a01b0384169282156108fc02929190818181858888f19350505050610fdf5760405162461bcd60e51b81526004016108bf90611938565b600082815260208190526040908190206005015490517ff1fb547dc94fe2543d211b416c861f5a2e4423e2c513dcd47d270ef67f3bca01916110249185918591611b4e565b60405180910390a1600082815260208190526040812060050155611119565b6000828152602081905260409020600101546001600160a01b0382811691161415611119576000828152602081905260408082206004015490516001600160a01b0384169282156108fc02929190818181858888f193505050506110b95760405162461bcd60e51b81526004016108bf90611709565b600082815260208190526040908190206004015490517ff1fb547dc94fe2543d211b416c861f5a2e4423e2c513dcd47d270ef67f3bca01916110fe9185918591611b4e565b60405180910390a16000828152602081905260408120600401555b506000908152602081905260408120600380820192909255600601805460ff19169091179055565b604051806101c001604052806000815260200160006001600160a01b0316815260200160006001600160a01b03168152602001600081526020016000815260200160008152602001600060048111156111aa57634e487b7160e01b600052602160045260246000fd5b81526060602082018190526000604083018190529082018190526080820181905260a0820181905260c0820181905260e09091015290565b8280546111ee90611ba0565b90600052602060002090601f0160209004810192826112105760008555611256565b82601f1061122957805160ff1916838001178555611256565b82800160010185558215611256579182015b8281111561125657825182559160200191906001019061123b565b50611262929150611266565b5090565b5b808211156112625760008155600101611267565b80356001600160a01b038116811461129257600080fd5b919050565b600080600080600060a086880312156112ae578081fd5b6112b78661127b565b9450602086013567ffffffffffffffff808211156112d3578283fd5b818801915088601f8301126112e6578283fd5b8135818111156112f8576112f8611c0c565b604051601f8201601f19908116603f0116810190838211818310171561132057611320611c0c565b816040528281528b6020848701011115611338578586fd5b826020860160208301379182016020019490945296999698505050506040850135946060810135946080909101359350915050565b6000806040838503121561137f578182fd5b6113888361127b565b946020939093013593505050565b6000602082840312156113a7578081fd5b5035919050565b6001600160a01b03169052565b15159052565b600581106113df57634e487b7160e01b600052602160045260246000fd5b9052565b60008151808452815b81811015611408576020818501810151868301820152016113ec565b818111156114195782602083870101525b50601f01601f19169290920160200192915050565b60208082528251828201819052600091906040908185019080840286018301878501865b8381101561155a57603f1989840301855281516101c0815185528882015161147c8a8701826113ae565b508782015161148d898701826113ae565b50606082810151908601526080808301519086015260a0808301519086015260c0808301516114be828801826113c1565b505060e08083015182828801526114d7838801826113e3565b9250505061010080830151818701525061012080830151818701525061014080830151611506828801826113bb565b50506101608083015161151b828801826113bb565b505061018080830151611530828801826113bb565b50506101a09182015191611546868201846113bb565b509588019593505090860190600101611452565b509098975050505050505050565b60208082526027908201527f50726f6a656374206973206e6f7420766572696669656420627920626f74682060408201527f7061727469657300000000000000000000000000000000000000000000000000606082015260800190565b60208082526022908201527f436c69656e7420616c7265616479207369676e65642074686520636f6e74726160408201526118dd60f21b606082015260800190565b6020808252601a908201527f50726f6a656374206973206e6f7420696e2070726f6772657373000000000000604082015260600190565b60208082526018908201527f50726f6a656374206973206e6f7420636f6d706c657465640000000000000000604082015260600190565b60208082526019908201527f46756e647320616c7265616479207472616e7366657272656400000000000000604082015260600190565b6020808252602a908201527f4f6e6c792074686520667265656c616e6365722063616e2063616c6c2074686960408201527f732066756e6374696f6e00000000000000000000000000000000000000000000606082015260800190565b60208082526014908201527f436c69656e7420726566756e64206661696c6564000000000000000000000000604082015260600190565b60208082526026908201527f4f6e6c792074686520636c69656e742063616e2063616c6c207468697320667560408201527f6e6374696f6e0000000000000000000000000000000000000000000000000000606082015260800190565b60208082526021908201527f496e636f7272656374207365637572697479206465706f73697420616d6f756e6040820152601d60fa1b606082015260800190565b60208082526026908201527f467265656c616e63657220616c7265616479207369676e65642074686520636f60408201527f6e74726163740000000000000000000000000000000000000000000000000000606082015260800190565b60208082526032908201527f50726f6a65637420627564676574206973206e6f7420657175616c20746f207460408201527f686520616d6f756e742070726f76696465640000000000000000000000000000606082015260800190565b60208082526028908201527f50726f6a656374206d75737420626520766572696669656420627920636c696560408201527f6e74206669727374000000000000000000000000000000000000000000000000606082015260800190565b60208082526023908201527f436c69656e74206d757374207369676e2074686520636f6e74726163742066696040820152621c9cdd60ea1b606082015260800190565b60208082526018908201527f467265656c616e63657220726566756e64206661696c65640000000000000000604082015260600190565b60208082526023908201527f496e73756666696369656e742066756e647320696e20636c69656e742077616c6040820152621b195d60ea1b606082015260800190565b60208082526027908201527f467265656c616e636572206d757374207369676e2074686520636f6e7472616360408201527f7420666972737400000000000000000000000000000000000000000000000000606082015260800190565b90815260200190565b9182526001600160a01b0316602082015260400190565b60008782526001600160a01b03808816602084015280871660408401525060c06060830152611a6160c08301866113e3565b60808301949094525060a00152949350505050565b9384526001600160a01b03928316602085015291166040830152606082015260800190565b60008f82526001600160a01b038f1660208301526001600160a01b038e1660408301528c60608301528b60808301528a60a0830152611add60c083018b6113c1565b6101c060e0830152611af36101c083018a6113e3565b90508761010083015286610120830152611b116101408301876113bb565b611b1f6101608301866113bb565b611b2d6101808301856113bb565b611b3b6101a08301846113bb565b9f9e505050505050505050505050505050565b9283526001600160a01b03919091166020830152604082015260600190565b82815260408101611b8160208301846113c1565b9392505050565b60008219821115611b9b57611b9b611bf6565b500190565b600281046001821680611bb457607f821691505b60208210811415611bd557634e487b7160e01b600052602260045260246000fd5b50919050565b6000600019821415611bef57611bef611bf6565b5060010190565b634e487b7160e01b600052601160045260246000fd5b634e487b7160e01b600052604160045260246000fdfea164736f6c6343000801000a",
  "immutableReferences": {},
  "source": "// SPDX-License-Identifier: MIT\npragma solidity ^0.8.1;\n\ncontract FreelanceShieldContract {\n    enum ProjectState { Created, InProgress, Completed, Closed, Cancelled }\n\n    struct Contract {\n        uint256 id;\n        address client;\n        address freelancer;\n        uint256 securityDepositAmount;\n        uint256 clientSecurityDeposit;\n        uint256 freelancerSecurityDeposit;\n        ProjectState state;\n        string projectName;\n        uint256 deadline;\n        uint256 totalBudget;\n        bool freelancerSigned;\n        bool clientSigned;\n        bool projectVerified;\n        bool fundTransferred;\n    }\n    \n    mapping(uint256 => Contract) public contracts;\n    uint256 public contractCounter;\n\n    mapping(address => uint256[]) public clientContracts;\n    mapping(address => uint256[]) public freelancerContracts;\n\n    event ContractCreated(uint256 contractId, address client, address freelancer, string projectName, uint256 deadline, uint256 totalBudget);\n    event SecurityDepositDeposited(uint256 contractId, address depositor, uint256 amount);\n    event ProjectStateChanged(uint256 contractId, ProjectState newState);\n    event ProjectCompleted(uint256 contractId);\n    event ProjectVerified(uint256 contractId, address verifier);\n    event FundTransferred(uint256 contractId, address from, address to, uint256 amount);\n    event SecurityDepositRefunded(uint256 contractId, address payee, uint256 amount);\n\n    modifier onlyClient(uint256 contractId) {\n        require(msg.sender == contracts[contractId].client, \"Only the client can call this function\");\n        _;\n    }\n\n    modifier onlyFreelancer(uint256 contractId) {\n        require(msg.sender == contracts[contractId].freelancer, \"Only the freelancer can call this function\");\n        _;\n    }\n\n    function createContract(\n        address _freelancer,\n        string memory _projectName,\n        uint256 _deadline,\n        uint256 _totalBudget,\n        uint256 _securityDepositAmount\n    ) external {\n        contractCounter++;\n        contracts[contractCounter] = Contract({\n            id: contractCounter,\n            client: msg.sender,\n            freelancer: _freelancer,\n            state: ProjectState.Created,\n            projectName: _projectName,\n            deadline: _deadline,\n            totalBudget: _totalBudget,\n            securityDepositAmount: _securityDepositAmount,\n            clientSecurityDeposit: 0,\n            freelancerSecurityDeposit: 0,\n            freelancerSigned: false,\n            clientSigned: false,\n            projectVerified: false,\n            fundTransferred: false\n        });\n\n        clientContracts[msg.sender].push(contractCounter);\n        freelancerContracts[_freelancer].push(contractCounter);\n\n        emit ContractCreated(contractCounter, msg.sender, _freelancer, _projectName, _deadline, _totalBudget);\n    }\n\n    function depositSecurityDeposit(uint256 contractId) external payable {\n        require(contracts[contractId].securityDepositAmount == msg.value, \"Incorrect security deposit amount\");\n\n        if (msg.sender == contracts[contractId].client) {\n            require(!contracts[contractId].clientSigned, \"Client already signed the contract\");\n            contracts[contractId].clientSigned = true;\n            contracts[contractId].clientSecurityDeposit += msg.value;\n        } else if (msg.sender == contracts[contractId].freelancer) {\n            require(!contracts[contractId].freelancerSigned, \"Freelancer already signed the contract\");\n            contracts[contractId].freelancerSigned = true;\n            contracts[contractId].freelancerSecurityDeposit += msg.value;\n        }\n        emit SecurityDepositDeposited(contractId, msg.sender, msg.value);\n    }\n\n    function updateProjectState(uint256 contractId) external onlyFreelancer(contractId) {\n        require(contracts[contractId].freelancerSigned, \"Freelancer must sign the contract first\");\n        contracts[contractId].state = ProjectState.InProgress;\n        emit ProjectStateChanged(contractId, ProjectState.InProgress);\n    }\n\n    function markProjectCompleted(uint256 contractId) external onlyFreelancer(contractId) {\n        require(contracts[contractId].state == ProjectState.InProgress, \"Project is not in progress\");\n        contracts[contractId].state = ProjectState.Completed;\n        emit ProjectCompleted(contractId);\n    }\n\n    function verifyProject(uint256 contractId) external onlyClient(contractId) {\n        require(contracts[contractId].clientSigned, \"Client must sign the contract first\");\n        require(contracts[contractId].state == ProjectState.Completed, \"Project is not completed\");\n        contracts[contractId].projectVerified = true;\n        emit ProjectVerified(contractId, msg.sender);\n    }\n\n    function transferFund(uint256 contractId) external payable  onlyClient(contractId) {\n        require(contracts[contractId].projectVerified, \"Project must be verified by client first\");\n        require(contracts[contractId].totalBudget == msg.value, \"Project budget is not equal to the amount provided\");\n\n        // Check if the contract is not already funded\n        require(!contracts[contractId].fundTransferred, \"Funds already transferred\");\n\n        // Ensure that client have enough funds\n        require(address(this).balance >= contracts[contractId].totalBudget, \"Insufficient funds in client wallet\");\n\n        // Transfer funds to freelancer\n        payable(contracts[contractId].freelancer).transfer(msg.value);\n    \n        // payable(contracts[contractId].freelancer).transfer(contracts[contractId].totalBudget);\n        \n        contracts[contractId].fundTransferred = true;\n        emit FundTransferred(contractId, contracts[contractId].client, contracts[contractId].freelancer, msg.value);\n\n        // Refund security deposit to freelancer\n        refundSecurityDeposit(contractId, contracts[contractId].freelancer);\n\n        // Refund security deposit to client\n        refundSecurityDeposit(contractId, contracts[contractId].client);\n    }\n\n    function refundSecurityDeposit(uint256 contractId, address payee) private {\n        require(contracts[contractId].projectVerified && contracts[contractId].fundTransferred, \"Project is not verified by both parties\");\n\n        if (payee == contracts[contractId].freelancer) {\n            require(payable(payee).send(contracts[contractId].freelancerSecurityDeposit), \"Freelancer refund failed\");\n\n            // payable(payee).transfer(contracts[contractId].freelancerSecurityDeposit);\n            \n            emit SecurityDepositRefunded(contractId, payee, contracts[contractId].freelancerSecurityDeposit);\n            contracts[contractId].freelancerSecurityDeposit = 0;\n        } else if (payee == contracts[contractId].client) {\n            require(payable(payee).send(contracts[contractId].clientSecurityDeposit), \"Client refund failed\");\n\n            // payable(payee).transfer(contracts[contractId].clientSecurityDeposit);\n            \n            emit SecurityDepositRefunded(contractId, payee, contracts[contractId].clientSecurityDeposit);\n            contracts[contractId].clientSecurityDeposit = 0;\n        }\n\n        contracts[contractId].securityDepositAmount = 0;\n        contracts[contractId].state = ProjectState.Closed;\n\n        \n    }\n\n    function getAllContracts() external view returns (Contract[] memory) {\n        Contract[] memory _contracts = new Contract[](contractCounter);\n        for (uint256 i = 0; i < contractCounter; i++) {\n            _contracts[i] = contracts[i + 1];\n        }\n        return _contracts;\n    }\n}",
  "sourcePath": "/home/ujjwal/blockchain-projects/FreelanceShield/src/contracts/FreelanceShieldContract.sol",
  "compiler": {
    "name": "solc",
    "version": "0.8.1+commit.df193b15.Emscripten.clang"
  },
  "schemaVersion": "3.4.16",
  "updatedAt": "2024-01-21T17:11:59.242Z",
  "networkType": "ethereum",
  "devdoc": {
    "kind": "dev",
    "methods": {},
    "version": 1
  },
  "userdoc": {
    "kind": "user",
    "methods": {},
    "version": 1
  }
}