{
  "contractName": "FreelanceShieldContract",
  "abi": [
    {
      "anonymous": false,
      "inputs": [
        {
          "indexed": false,
          "internalType": "uint256",
          "name": "contractId",
          "type": "uint256"
        },
        {
          "indexed": false,
          "internalType": "address",
          "name": "client",
          "type": "address"
        },
        {
          "indexed": false,
          "internalType": "address",
          "name": "freelancer",
          "type": "address"
        },
        {
          "indexed": false,
          "internalType": "string",
          "name": "projectName",
          "type": "string"
        },
        {
          "indexed": false,
          "internalType": "uint256",
          "name": "deadline",
          "type": "uint256"
        },
        {
          "indexed": false,
          "internalType": "uint256",
          "name": "totalBudget",
          "type": "uint256"
        }
      ],
      "name": "ContractCreated",
      "type": "event"
    },
    {
      "anonymous": false,
      "inputs": [
        {
          "indexed": false,
          "internalType": "uint256",
          "name": "contractId",
          "type": "uint256"
        },
        {
          "indexed": false,
          "internalType": "address",
          "name": "from",
          "type": "address"
        },
        {
          "indexed": false,
          "internalType": "address",
          "name": "to",
          "type": "address"
        },
        {
          "indexed": false,
          "internalType": "uint256",
          "name": "amount",
          "type": "uint256"
        }
      ],
      "name": "FundTransferred",
      "type": "event"
    },
    {
      "anonymous": false,
      "inputs": [
        {
          "indexed": false,
          "internalType": "uint256",
          "name": "contractId",
          "type": "uint256"
        }
      ],
      "name": "ProjectCompleted",
      "type": "event"
    },
    {
      "anonymous": false,
      "inputs": [
        {
          "indexed": false,
          "internalType": "uint256",
          "name": "contractId",
          "type": "uint256"
        },
        {
          "indexed": false,
          "internalType": "enum FreelanceShieldContract.ProjectState",
          "name": "newState",
          "type": "uint8"
        }
      ],
      "name": "ProjectStateChanged",
      "type": "event"
    },
    {
      "anonymous": false,
      "inputs": [
        {
          "indexed": false,
          "internalType": "uint256",
          "name": "contractId",
          "type": "uint256"
        },
        {
          "indexed": false,
          "internalType": "address",
          "name": "verifier",
          "type": "address"
        }
      ],
      "name": "ProjectVerified",
      "type": "event"
    },
    {
      "anonymous": false,
      "inputs": [
        {
          "indexed": false,
          "internalType": "uint256",
          "name": "contractId",
          "type": "uint256"
        },
        {
          "indexed": false,
          "internalType": "address",
          "name": "depositor",
          "type": "address"
        },
        {
          "indexed": false,
          "internalType": "uint256",
          "name": "amount",
          "type": "uint256"
        }
      ],
      "name": "SecurityDepositDeposited",
      "type": "event"
    },
    {
      "anonymous": false,
      "inputs": [
        {
          "indexed": false,
          "internalType": "uint256",
          "name": "contractId",
          "type": "uint256"
        },
        {
          "indexed": false,
          "internalType": "address",
          "name": "payee",
          "type": "address"
        },
        {
          "indexed": false,
          "internalType": "uint256",
          "name": "amount",
          "type": "uint256"
        }
      ],
      "name": "SecurityDepositRefunded",
      "type": "event"
    },
    {
      "inputs": [
        {
          "internalType": "address",
          "name": "",
          "type": "address"
        },
        {
          "internalType": "uint256",
          "name": "",
          "type": "uint256"
        }
      ],
      "name": "clientContracts",
      "outputs": [
        {
          "internalType": "uint256",
          "name": "",
          "type": "uint256"
        }
      ],
      "stateMutability": "view",
      "type": "function",
      "constant": true
    },
    {
      "inputs": [],
      "name": "contractCounter",
      "outputs": [
        {
          "internalType": "uint256",
          "name": "",
          "type": "uint256"
        }
      ],
      "stateMutability": "view",
      "type": "function",
      "constant": true
    },
    {
      "inputs": [
        {
          "internalType": "uint256",
          "name": "",
          "type": "uint256"
        }
      ],
      "name": "contracts",
      "outputs": [
        {
          "internalType": "address",
          "name": "client",
          "type": "address"
        },
        {
          "internalType": "address",
          "name": "freelancer",
          "type": "address"
        },
        {
          "internalType": "uint256",
          "name": "securityDepositAmount",
          "type": "uint256"
        },
        {
          "internalType": "uint256",
          "name": "clientSecurityDeposit",
          "type": "uint256"
        },
        {
          "internalType": "uint256",
          "name": "freelancerSecurityDeposit",
          "type": "uint256"
        },
        {
          "internalType": "enum FreelanceShieldContract.ProjectState",
          "name": "state",
          "type": "uint8"
        },
        {
          "internalType": "string",
          "name": "projectName",
          "type": "string"
        },
        {
          "internalType": "uint256",
          "name": "deadline",
          "type": "uint256"
        },
        {
          "internalType": "uint256",
          "name": "totalBudget",
          "type": "uint256"
        },
        {
          "internalType": "bool",
          "name": "freelancerSigned",
          "type": "bool"
        },
        {
          "internalType": "bool",
          "name": "clientSigned",
          "type": "bool"
        },
        {
          "internalType": "bool",
          "name": "projectVerified",
          "type": "bool"
        },
        {
          "internalType": "bool",
          "name": "fundTransferred",
          "type": "bool"
        }
      ],
      "stateMutability": "view",
      "type": "function",
      "constant": true
    },
    {
      "inputs": [
        {
          "internalType": "address",
          "name": "",
          "type": "address"
        },
        {
          "internalType": "uint256",
          "name": "",
          "type": "uint256"
        }
      ],
      "name": "freelancerContracts",
      "outputs": [
        {
          "internalType": "uint256",
          "name": "",
          "type": "uint256"
        }
      ],
      "stateMutability": "view",
      "type": "function",
      "constant": true
    },
    {
      "inputs": [
        {
          "internalType": "address",
          "name": "_freelancer",
          "type": "address"
        },
        {
          "internalType": "string",
          "name": "_projectName",
          "type": "string"
        },
        {
          "internalType": "uint256",
          "name": "_deadline",
          "type": "uint256"
        },
        {
          "internalType": "uint256",
          "name": "_totalBudget",
          "type": "uint256"
        },
        {
          "internalType": "uint256",
          "name": "_securityDepositAmount",
          "type": "uint256"
        }
      ],
      "name": "createContract",
      "outputs": [],
      "stateMutability": "nonpayable",
      "type": "function"
    },
    {
      "inputs": [
        {
          "internalType": "uint256",
          "name": "contractId",
          "type": "uint256"
        }
      ],
      "name": "depositSecurityDeposit",
      "outputs": [],
      "stateMutability": "payable",
      "type": "function",
      "payable": true
    },
    {
      "inputs": [
        {
          "internalType": "uint256",
          "name": "contractId",
          "type": "uint256"
        },
        {
          "internalType": "enum FreelanceShieldContract.ProjectState",
          "name": "newState",
          "type": "uint8"
        }
      ],
      "name": "updateProjectState",
      "outputs": [],
      "stateMutability": "nonpayable",
      "type": "function"
    },
    {
      "inputs": [
        {
          "internalType": "uint256",
          "name": "contractId",
          "type": "uint256"
        }
      ],
      "name": "markProjectCompleted",
      "outputs": [],
      "stateMutability": "nonpayable",
      "type": "function"
    },
    {
      "inputs": [
        {
          "internalType": "uint256",
          "name": "contractId",
          "type": "uint256"
        }
      ],
      "name": "verifyProject",
      "outputs": [],
      "stateMutability": "nonpayable",
      "type": "function"
    },
    {
      "inputs": [
        {
          "internalType": "uint256",
          "name": "contractId",
          "type": "uint256"
        }
      ],
      "name": "transferFund",
      "outputs": [],
      "stateMutability": "payable",
      "type": "function",
      "payable": true
    },
    {
      "inputs": [],
      "name": "getAllContracts",
      "outputs": [
        {
          "components": [
            {
              "internalType": "address",
              "name": "client",
              "type": "address"
            },
            {
              "internalType": "address",
              "name": "freelancer",
              "type": "address"
            },
            {
              "internalType": "uint256",
              "name": "securityDepositAmount",
              "type": "uint256"
            },
            {
              "internalType": "uint256",
              "name": "clientSecurityDeposit",
              "type": "uint256"
            },
            {
              "internalType": "uint256",
              "name": "freelancerSecurityDeposit",
              "type": "uint256"
            },
            {
              "internalType": "enum FreelanceShieldContract.ProjectState",
              "name": "state",
              "type": "uint8"
            },
            {
              "internalType": "string",
              "name": "projectName",
              "type": "string"
            },
            {
              "internalType": "uint256",
              "name": "deadline",
              "type": "uint256"
            },
            {
              "internalType": "uint256",
              "name": "totalBudget",
              "type": "uint256"
            },
            {
              "internalType": "bool",
              "name": "freelancerSigned",
              "type": "bool"
            },
            {
              "internalType": "bool",
              "name": "clientSigned",
              "type": "bool"
            },
            {
              "internalType": "bool",
              "name": "projectVerified",
              "type": "bool"
            },
            {
              "internalType": "bool",
              "name": "fundTransferred",
              "type": "bool"
            }
          ],
          "internalType": "struct FreelanceShieldContract.Contract[]",
          "name": "",
          "type": "tuple[]"
        }
      ],
      "stateMutability": "view",
      "type": "function",
      "constant": true
    }
  ],
  "bytecode": "0x608060405234801561001057600080fd5b50611bce806100206000396000f3fe6080604052600436106100bc5760003560e01c80636328790911610074578063cb5b7ca01161004e578063cb5b7ca0146101dc578063d2833709146101fc578063ed1ca91a1461020f576100bc565b806363287909146101895780636886f10d146101a957806389e33d9d146101bc576100bc565b80633257548c116100a55780633257548c1461010e5780633467596714610130578063474da79a14610150576100bc565b8063067bd3b4146100c157806318d3ce96146100ec575b600080fd5b3480156100cd57600080fd5b506100d661022f565b6040516100e39190611a61565b60405180910390f35b3480156100f857600080fd5b50610101610235565b6040516100e3919061148d565b34801561011a57600080fd5b5061012e61012936600461133a565b61048d565b005b34801561013c57600080fd5b5061012e61014b366004611223565b610581565b34801561015c57600080fd5b5061017061016b366004611322565b6107e2565b6040516100e39d9c9b9a999897969594939291906113ec565b34801561019557600080fd5b506100d66101a43660046112f9565b6108ed565b61012e6101b7366004611322565b61091e565b3480156101c857600080fd5b506100d66101d73660046112f9565b610b34565b3480156101e857600080fd5b5061012e6101f7366004611322565b610b50565b61012e61020a366004611322565b610c36565b34801561021b57600080fd5b5061012e61022a366004611322565b610dc1565b60015481565b6060600060015467ffffffffffffffff81111561026257634e487b7160e01b600052604160045260246000fd5b60405190808252806020026020018201604052801561029b57816020015b610288611103565b8152602001906001900390816102805790505b50905060005b600154811015610487576000806102b9836001611b27565b8152602080820192909252604090810160002081516101a08101835281546001600160a01b03908116825260018301541693810193909352600281015491830191909152600381015460608301526004808201546080840152600582015460a084019160ff9091169081111561033f57634e487b7160e01b600052602160045260246000fd5b600481111561035e57634e487b7160e01b600052602160045260246000fd5b815260200160068201805461037290611b3f565b80601f016020809104026020016040519081016040528092919081815260200182805461039e90611b3f565b80156103eb5780601f106103c0576101008083540402835291602001916103eb565b820191906000526020600020905b8154815290600101906020018083116103ce57829003601f168201915b5050509183525050600782015460208201526008820154604082015260099091015460ff8082161515606084015261010082048116151560808401526201000082048116151560a0840152630100000090910416151560c090910152825183908390811061046957634e487b7160e01b600052603260045260246000fd5b6020026020010181905250808061047f90611b7a565b9150506102a1565b50905090565b60008281526020819052604090206001015482906001600160a01b031633146104d15760405162461bcd60e51b81526004016104c8906116fe565b60405180910390fd5b60008381526020819052604090206009015460ff166105025760405162461bcd60e51b81526004016104c890611a04565b6000838152602081905260409020600501805483919060ff1916600183600481111561053e57634e487b7160e01b600052602160045260246000fd5b02179055507f84748ac78940dbf14129c6da5df32a04b530b472eaddadb4d7b62ea4e88bd46d8383604051610574929190611b0c565b60405180910390a1505050565b6001805490600061059183611b7a565b9091555050604080516101a0810182523381526001600160a01b0387811660208084019182528385018681526000606086018181526080870182815260a0880183815260c089018e905260e089018d905261010089018c905261012089018490526101408901849052610160890184905261018089018490526001805485529584905298909220875181549088167fffffffffffffffffffffffff00000000000000000000000000000000000000009182161782559551818601805491909816961695909517909555905160028401559251600383015591516004808301919091559351600582018054949592949193909260ff19929092169184908111156106aa57634e487b7160e01b600052602160045260246000fd5b021790555060c082015180516106ca91600684019160209091019061116e565b5060e082015160078201556101008083015160088301556101208301516009909201805461014085015161016086015161018090960151151563010000000263ff00000019961515620100000262ff00001992151590950261ff001996151560ff199094169390931795909516919091171691909117929092161790553360008181526002602090815260408083206001805482548083018455928652848620909201919091556001600160a01b038a168452600383528184208154815480840183559186529390942090930191909155905490517fd1fa394b8f946b876ba7be2dfc86918d981e40ec7b905b4180caf54002fefc0d926107d392918990899089908990611a81565b60405180910390a15050505050565b60006020819052908152604090208054600182015460028301546003840154600485015460058601546006870180546001600160a01b0397881698969097169694959394929360ff9092169261083790611b3f565b80601f016020809104026020016040519081016040528092919081815260200182805461086390611b3f565b80156108b05780601f10610885576101008083540402835291602001916108b0565b820191906000526020600020905b81548152906001019060200180831161089357829003601f168201915b50505050600783015460088401546009909401549293909290915060ff80821691610100810482169162010000820481169163010000009004168d565b6003602052816000526040600020818154811061090957600080fd5b90600052602060002001600091509150505481565b60008181526020819052604090205481906001600160a01b031633146109565760405162461bcd60e51b81526004016104c890611792565b60008281526020819052604090206009015462010000900460ff1661098d5760405162461bcd60e51b81526004016104c8906118ea565b60008281526020819052604090206008015434146109bd5760405162461bcd60e51b81526004016104c89061188d565b6000828152602081905260409020600901546301000000900460ff16156109f65760405162461bcd60e51b81526004016104c8906116c7565b600082815260208190526040902060080154471015610a275760405162461bcd60e51b81526004016104c8906119c1565b6000828152602081905260408082206001015490516001600160a01b03909116913480156108fc02929091818181858888f19350505050158015610a6f573d6000803e3d6000fd5b506000828152602081905260409081902060098101805463ff0000001916630100000017905580546001919091015491517fb821359465793d23a94be651a0c99477cd92fa74681fdb5913c835b49b62b83992610adf9286926001600160a01b0391821692909116903490611ac8565b60405180910390a1600082815260208190526040902060010154610b0d9083906001600160a01b0316610ed4565b600082815260208190526040902054610b309083906001600160a01b0316610ed4565b5050565b6002602052816000526040600020818154811061090957600080fd5b60008181526020819052604090206001015481906001600160a01b03163314610b8b5760405162461bcd60e51b81526004016104c8906116fe565b600160008381526020819052604090206005015460ff166004811115610bc157634e487b7160e01b600052602160045260246000fd5b14610bde5760405162461bcd60e51b81526004016104c890611659565b60008281526020819052604090819020600501805460ff19166002179055517f60d8df137e489b6216738e436244ca4700bd6d0c8371d3c8d9c80b54538111b990610c2a908490611a61565b60405180910390a15050565b6000818152602081905260409020600201543414610c665760405162461bcd60e51b81526004016104c8906117ef565b6000818152602081905260409020546001600160a01b0316331415610cf957600081815260208190526040902060090154610100900460ff1615610cbc5760405162461bcd60e51b81526004016104c890611617565b600081815260208190526040812060098101805461ff0019166101001790556003018054349290610cee908490611b27565b90915550610d839050565b6000818152602081905260409020600101546001600160a01b0316331415610d835760008181526020819052604090206009015460ff1615610d4d5760405162461bcd60e51b81526004016104c890611830565b600081815260208190526040812060098101805460ff191660011790556004018054349290610d7d908490611b27565b90915550505b7fe48e5b3057451d7f8180eff26789021517ad757c82c4cb5f3d58dac52ea9a489813334604051610db693929190611aed565b60405180910390a150565b60008181526020819052604090205481906001600160a01b03163314610df95760405162461bcd60e51b81526004016104c890611792565b600082815260208190526040902060090154610100900460ff16610e2f5760405162461bcd60e51b81526004016104c890611947565b600260008381526020819052604090206005015460ff166004811115610e6557634e487b7160e01b600052602160045260246000fd5b14610e825760405162461bcd60e51b81526004016104c890611690565b60008281526020819052604090819020600901805462ff0000191662010000179055517fa8993bbe79af1071dc039c1144feccfba01680aa0fdd10a4e92f1a12533e895c90610c2a9084903390611a6a565b60008281526020819052604090206009015462010000900460ff168015610f1357506000828152602081905260409020600901546301000000900460ff165b610f2f5760405162461bcd60e51b81526004016104c8906115ba565b6000828152602081905260409020600101546001600160a01b0382811691161415611009576000828152602081905260408082206004015490516001600160a01b0384169282156108fc02929190818181858888f19350505050610fa55760405162461bcd60e51b81526004016104c89061198a565b600082815260208190526040908190206004015490517ff1fb547dc94fe2543d211b416c861f5a2e4423e2c513dcd47d270ef67f3bca0191610fea9185918591611aed565b60405180910390a16000828152602081905260408120600401556110dc565b6000828152602081905260409020546001600160a01b03828116911614156110dc576000828152602081905260408082206003015490516001600160a01b0384169282156108fc02929190818181858888f1935050505061107c5760405162461bcd60e51b81526004016104c89061175b565b600082815260208190526040908190206003015490517ff1fb547dc94fe2543d211b416c861f5a2e4423e2c513dcd47d270ef67f3bca01916110c19185918591611aed565b60405180910390a16000828152602081905260408120600301555b5060009081526020819052604081206002810191909155600501805460ff19166003179055565b604080516101a08101825260008082526020820181905291810182905260608082018390526080820183905260a0820183905260c082015260e08101829052610100810182905261012081018290526101408101829052610160810182905261018081019190915290565b82805461117a90611b3f565b90600052602060002090601f01602090048101928261119c57600085556111e2565b82601f106111b557805160ff19168380011785556111e2565b828001600101855582156111e2579182015b828111156111e25782518255916020019190600101906111c7565b506111ee9291506111f2565b5090565b5b808211156111ee57600081556001016111f3565b80356001600160a01b038116811461121e57600080fd5b919050565b600080600080600060a0868803121561123a578081fd5b61124386611207565b9450602086013567ffffffffffffffff8082111561125f578283fd5b818801915088601f830112611272578283fd5b81358181111561128457611284611bab565b604051601f8201601f19908116603f011681019083821181831017156112ac576112ac611bab565b816040528281528b60208487010111156112c4578586fd5b826020860160208301379182016020019490945296999698505050506040850135946060810135946080909101359350915050565b6000806040838503121561130b578182fd5b61131483611207565b946020939093013593505050565b600060208284031215611333578081fd5b5035919050565b6000806040838503121561134c578182fd5b82359150602083013560058110611361578182fd5b809150509250929050565b6001600160a01b03169052565b15159052565b6005811061139d57634e487b7160e01b600052602160045260246000fd5b9052565b60008151808452815b818110156113c6576020818501810151868301820152016113aa565b818111156113d75782602083870101525b50601f01601f19169290920160200192915050565b60006001600160a01b038f1682526001600160a01b038e1660208301528c60408301528b60608301528a608083015261142860a083018b61137f565b6101a060c083015261143e6101a083018a6113a1565b90508760e08301528661010083015285151561012083015284151561014083015261146d610160830185611379565b61147b610180830184611379565b9e9d5050505050505050505050505050565b60208082528251828201819052600091906040908185019080840286018301878501865b838110156115ac57603f1989840301855281516101a06114d285835161136c565b888201516114e28a87018261136c565b508188015185890152606080830151908601526080808301519086015260a0808301516115118288018261137f565b505060c080830151828288015261152a838801826113a1565b9250505060e08083015181870152506101008083015181870152506101208083015161155882880182611379565b50506101408083015161156d82880182611379565b50506101608083015161158282880182611379565b5050610180918201519161159886820184611379565b5095880195935050908601906001016114b1565b509098975050505050505050565b60208082526027908201527f50726f6a656374206973206e6f7420766572696669656420627920626f74682060408201527f7061727469657300000000000000000000000000000000000000000000000000606082015260800190565b60208082526022908201527f436c69656e7420616c7265616479207369676e65642074686520636f6e74726160408201526118dd60f21b606082015260800190565b6020808252601a908201527f50726f6a656374206973206e6f7420696e2070726f6772657373000000000000604082015260600190565b60208082526018908201527f50726f6a656374206973206e6f7420636f6d706c657465640000000000000000604082015260600190565b60208082526019908201527f46756e647320616c7265616479207472616e7366657272656400000000000000604082015260600190565b6020808252602a908201527f4f6e6c792074686520667265656c616e6365722063616e2063616c6c2074686960408201527f732066756e6374696f6e00000000000000000000000000000000000000000000606082015260800190565b60208082526014908201527f436c69656e7420726566756e64206661696c6564000000000000000000000000604082015260600190565b60208082526026908201527f4f6e6c792074686520636c69656e742063616e2063616c6c207468697320667560408201527f6e6374696f6e0000000000000000000000000000000000000000000000000000606082015260800190565b60208082526021908201527f496e636f7272656374207365637572697479206465706f73697420616d6f756e6040820152601d60fa1b606082015260800190565b60208082526026908201527f467265656c616e63657220616c7265616479207369676e65642074686520636f60408201527f6e74726163740000000000000000000000000000000000000000000000000000606082015260800190565b60208082526032908201527f50726f6a65637420627564676574206973206e6f7420657175616c20746f207460408201527f686520616d6f756e742070726f76696465640000000000000000000000000000606082015260800190565b60208082526028908201527f50726f6a656374206d75737420626520766572696669656420627920636c696560408201527f6e74206669727374000000000000000000000000000000000000000000000000606082015260800190565b60208082526023908201527f436c69656e74206d757374207369676e2074686520636f6e74726163742066696040820152621c9cdd60ea1b606082015260800190565b60208082526018908201527f467265656c616e63657220726566756e64206661696c65640000000000000000604082015260600190565b60208082526023908201527f496e73756666696369656e742066756e647320696e20636c69656e742077616c6040820152621b195d60ea1b606082015260800190565b60208082526027908201527f467265656c616e636572206d757374207369676e2074686520636f6e7472616360408201527f7420666972737400000000000000000000000000000000000000000000000000606082015260800190565b90815260200190565b9182526001600160a01b0316602082015260400190565b60008782526001600160a01b03808816602084015280871660408401525060c06060830152611ab360c08301866113a1565b60808301949094525060a00152949350505050565b9384526001600160a01b03928316602085015291166040830152606082015260800190565b9283526001600160a01b03919091166020830152604082015260600190565b82815260408101611b20602083018461137f565b9392505050565b60008219821115611b3a57611b3a611b95565b500190565b600281046001821680611b5357607f821691505b60208210811415611b7457634e487b7160e01b600052602260045260246000fd5b50919050565b6000600019821415611b8e57611b8e611b95565b5060010190565b634e487b7160e01b600052601160045260246000fd5b634e487b7160e01b600052604160045260246000fdfea164736f6c6343000801000a",
  "immutableReferences": {},
  "source": "// SPDX-License-Identifier: MIT\npragma solidity ^0.8.1;\n\ncontract FreelanceShieldContract {\n    enum ProjectState { Created, InProgress, Completed, Closed, Cancelled }\n\n    struct Contract {\n        address client;\n        address freelancer;\n        uint256 securityDepositAmount;\n        uint256 clientSecurityDeposit;\n        uint256 freelancerSecurityDeposit;\n        ProjectState state;\n        string projectName;\n        uint256 deadline;\n        uint256 totalBudget;\n        bool freelancerSigned;\n        bool clientSigned;\n        bool projectVerified;\n        bool fundTransferred;\n    }\n    \n    mapping(uint256 => Contract) public contracts;\n    uint256 public contractCounter;\n\n    mapping(address => uint256[]) public clientContracts;\n    mapping(address => uint256[]) public freelancerContracts;\n\n    event ContractCreated(uint256 contractId, address client, address freelancer, string projectName, uint256 deadline, uint256 totalBudget);\n    event SecurityDepositDeposited(uint256 contractId, address depositor, uint256 amount);\n    event ProjectStateChanged(uint256 contractId, ProjectState newState);\n    event ProjectCompleted(uint256 contractId);\n    event ProjectVerified(uint256 contractId, address verifier);\n    event FundTransferred(uint256 contractId, address from, address to, uint256 amount);\n    event SecurityDepositRefunded(uint256 contractId, address payee, uint256 amount);\n\n    modifier onlyClient(uint256 contractId) {\n        require(msg.sender == contracts[contractId].client, \"Only the client can call this function\");\n        _;\n    }\n\n    modifier onlyFreelancer(uint256 contractId) {\n        require(msg.sender == contracts[contractId].freelancer, \"Only the freelancer can call this function\");\n        _;\n    }\n\n    function createContract(\n        address _freelancer,\n        string memory _projectName,\n        uint256 _deadline,\n        uint256 _totalBudget,\n        uint256 _securityDepositAmount\n    ) external {\n        contractCounter++;\n        contracts[contractCounter] = Contract({\n            client: msg.sender,\n            freelancer: _freelancer,\n            state: ProjectState.Created,\n            projectName: _projectName,\n            deadline: _deadline,\n            totalBudget: _totalBudget,\n            securityDepositAmount: _securityDepositAmount,\n            clientSecurityDeposit: 0,\n            freelancerSecurityDeposit: 0,\n            freelancerSigned: false,\n            clientSigned: false,\n            projectVerified: false,\n            fundTransferred: false\n        });\n\n        clientContracts[msg.sender].push(contractCounter);\n        freelancerContracts[_freelancer].push(contractCounter);\n\n        emit ContractCreated(contractCounter, msg.sender, _freelancer, _projectName, _deadline, _totalBudget);\n    }\n\n    function depositSecurityDeposit(uint256 contractId) external payable {\n        require(contracts[contractId].securityDepositAmount == msg.value, \"Incorrect security deposit amount\");\n\n        if (msg.sender == contracts[contractId].client) {\n            require(!contracts[contractId].clientSigned, \"Client already signed the contract\");\n            contracts[contractId].clientSigned = true;\n            contracts[contractId].clientSecurityDeposit += msg.value;\n        } else if (msg.sender == contracts[contractId].freelancer) {\n            require(!contracts[contractId].freelancerSigned, \"Freelancer already signed the contract\");\n            contracts[contractId].freelancerSigned = true;\n            contracts[contractId].freelancerSecurityDeposit += msg.value;\n        }\n        emit SecurityDepositDeposited(contractId, msg.sender, msg.value);\n    }\n\n    function updateProjectState(uint256 contractId, ProjectState newState) external onlyFreelancer(contractId) {\n        require(contracts[contractId].freelancerSigned, \"Freelancer must sign the contract first\");\n        contracts[contractId].state = newState;\n        emit ProjectStateChanged(contractId, newState);\n    }\n\n    function markProjectCompleted(uint256 contractId) external onlyFreelancer(contractId) {\n        require(contracts[contractId].state == ProjectState.InProgress, \"Project is not in progress\");\n        contracts[contractId].state = ProjectState.Completed;\n        emit ProjectCompleted(contractId);\n    }\n\n    function verifyProject(uint256 contractId) external onlyClient(contractId) {\n        require(contracts[contractId].clientSigned, \"Client must sign the contract first\");\n        require(contracts[contractId].state == ProjectState.Completed, \"Project is not completed\");\n        contracts[contractId].projectVerified = true;\n        emit ProjectVerified(contractId, msg.sender);\n    }\n\n    function transferFund(uint256 contractId) external payable  onlyClient(contractId) {\n        require(contracts[contractId].projectVerified, \"Project must be verified by client first\");\n        require(contracts[contractId].totalBudget == msg.value, \"Project budget is not equal to the amount provided\");\n\n        // Check if the contract is not already funded\n        require(!contracts[contractId].fundTransferred, \"Funds already transferred\");\n\n        // Ensure that client have enough funds\n        require(address(this).balance >= contracts[contractId].totalBudget, \"Insufficient funds in client wallet\");\n\n        // Transfer funds to freelancer\n        payable(contracts[contractId].freelancer).transfer(msg.value);\n    \n        // payable(contracts[contractId].freelancer).transfer(contracts[contractId].totalBudget);\n        \n        contracts[contractId].fundTransferred = true;\n        emit FundTransferred(contractId, contracts[contractId].client, contracts[contractId].freelancer, msg.value);\n\n        // Refund security deposit to freelancer\n        refundSecurityDeposit(contractId, contracts[contractId].freelancer);\n\n        // Refund security deposit to client\n        refundSecurityDeposit(contractId, contracts[contractId].client);\n    }\n\n    function refundSecurityDeposit(uint256 contractId, address payee) private {\n        require(contracts[contractId].projectVerified && contracts[contractId].fundTransferred, \"Project is not verified by both parties\");\n\n        if (payee == contracts[contractId].freelancer) {\n            require(payable(payee).send(contracts[contractId].freelancerSecurityDeposit), \"Freelancer refund failed\");\n\n            // payable(payee).transfer(contracts[contractId].freelancerSecurityDeposit);\n            \n            emit SecurityDepositRefunded(contractId, payee, contracts[contractId].freelancerSecurityDeposit);\n            contracts[contractId].freelancerSecurityDeposit = 0;\n        } else if (payee == contracts[contractId].client) {\n            require(payable(payee).send(contracts[contractId].clientSecurityDeposit), \"Client refund failed\");\n\n            // payable(payee).transfer(contracts[contractId].clientSecurityDeposit);\n            \n            emit SecurityDepositRefunded(contractId, payee, contracts[contractId].clientSecurityDeposit);\n            contracts[contractId].clientSecurityDeposit = 0;\n        }\n\n        contracts[contractId].securityDepositAmount = 0;\n        contracts[contractId].state = ProjectState.Closed;\n\n        \n    }\n\n    function getAllContracts() external view returns (Contract[] memory) {\n        Contract[] memory _contracts = new Contract[](contractCounter);\n        for (uint256 i = 0; i < contractCounter; i++) {\n            _contracts[i] = contracts[i + 1];\n        }\n        return _contracts;\n    }\n}",
  "sourcePath": "/home/ujjwal/blockchain-projects/FreelanceShield/src/contracts/FreelanceShieldContract.sol",
  "compiler": {
    "name": "solc",
    "version": "0.8.1+commit.df193b15.Emscripten.clang"
  },
  "schemaVersion": "3.4.16",
  "updatedAt": "2024-01-21T13:46:43.076Z",
  "networkType": "ethereum",
  "devdoc": {
    "kind": "dev",
    "methods": {},
    "version": 1
  },
  "userdoc": {
    "kind": "user",
    "methods": {},
    "version": 1
  }
}